{"abi":[{"type":"constructor","inputs":[{"name":"_vault","type":"address","internalType":"address"},{"name":"_callbackSender","type":"address","internalType":"address"}],"stateMutability":"nonpayable"},{"type":"function","name":"callbackSender","inputs":[],"outputs":[{"name":"","type":"address","internalType":"address"}],"stateMutability":"view"},{"type":"function","name":"checkNeedsProtection","inputs":[{"name":"user","type":"address","internalType":"address"}],"outputs":[{"name":"","type":"bool","internalType":"bool"}],"stateMutability":"view"},{"type":"function","name":"executeProtection","inputs":[{"name":"user","type":"address","internalType":"address"}],"outputs":[],"stateMutability":"nonpayable"},{"type":"function","name":"owner","inputs":[],"outputs":[{"name":"","type":"address","internalType":"address"}],"stateMutability":"view"},{"type":"function","name":"renounceOwnership","inputs":[],"outputs":[],"stateMutability":"nonpayable"},{"type":"function","name":"setCallbackSender","inputs":[{"name":"_callbackSender","type":"address","internalType":"address"}],"outputs":[],"stateMutability":"nonpayable"},{"type":"function","name":"setVault","inputs":[{"name":"_vault","type":"address","internalType":"address"}],"outputs":[],"stateMutability":"nonpayable"},{"type":"function","name":"transferOwnership","inputs":[{"name":"newOwner","type":"address","internalType":"address"}],"outputs":[],"stateMutability":"nonpayable"},{"type":"function","name":"vault","inputs":[],"outputs":[{"name":"","type":"address","internalType":"address"}],"stateMutability":"view"},{"type":"event","name":"CallbackSenderUpdated","inputs":[{"name":"newSender","type":"address","indexed":true,"internalType":"address"}],"anonymous":false},{"type":"event","name":"OwnershipTransferred","inputs":[{"name":"previousOwner","type":"address","indexed":true,"internalType":"address"},{"name":"newOwner","type":"address","indexed":true,"internalType":"address"}],"anonymous":false},{"type":"event","name":"ProtectionExecuted","inputs":[{"name":"user","type":"address","indexed":true,"internalType":"address"},{"name":"timestamp","type":"uint256","indexed":false,"internalType":"uint256"}],"anonymous":false},{"type":"event","name":"VaultUpdated","inputs":[{"name":"newVault","type":"address","indexed":true,"internalType":"address"}],"anonymous":false},{"type":"error","name":"OwnableInvalidOwner","inputs":[{"name":"owner","type":"address","internalType":"address"}]},{"type":"error","name":"OwnableUnauthorizedAccount","inputs":[{"name":"account","type":"address","internalType":"address"}]}],"bytecode":{"object":"0x6080346100ee57601f61065b38819003918201601f19168301916001600160401b038311848410176100f25780849260409485528339810103126100ee57610052602061004b83610106565b9201610106565b33156100db575f8054336001600160a01b0319821681178355604051949290916001600160a01b0316907f8be0079c531659141344cd1fd0a4f28419497f9722a3daafe3b4186f6b6457e09080a3600180546001600160a01b039283166001600160a01b03199182161790915560028054939092169216919091179055610540908161011b8239f35b631e4fbdf760e01b5f525f60045260245ffd5b5f80fd5b634e487b7160e01b5f52604160045260245ffd5b51906001600160a01b03821682036100ee5756fe60806040526004361015610011575f80fd5b5f5f3560e01c80631a33bdd9146103bc5780636817031b14610356578063715018a6146102ff5780638da5cb5b146102d8578063a3bc685e1461019a578063c9342f381461015f578063cb663a6314610136578063f2fde38b146100a85763fbfa77cf1461007d575f80fd5b346100a557806003193601126100a5576001546040516001600160a01b039091168152602090f35b80fd5b50346100a55760203660031901126100a5576004356001600160a01b03811690819003610132576100d76104e4565b801561011e5781546001600160a01b03198116821783556001600160a01b03167f8be0079c531659141344cd1fd0a4f28419497f9722a3daafe3b4186f6b6457e08380a380f35b631e4fbdf760e01b82526004829052602482fd5b5080fd5b50346100a557806003193601126100a5576002546040516001600160a01b039091168152602090f35b50346100a55760203660031901126100a557600435906001600160a01b03821682036100a557602061019083610458565b6040519015158152f35b5034610263576020366003190112610263576004356001600160a01b03811690819003610263576002546001600160a01b0316330361029c576001546001600160a01b0316801561026757803b15610263575f809160246040518094819363284da66160e01b83528760048401525af1801561025857610243575b507f5ed09b1bd2566011db11b2ac8e1ce10e3c411e56da85b43abc7e25eebe7c25a16020604051428152a280f35b6102509192505f90610422565b5f905f610215565b6040513d5f823e3d90fd5b5f80fd5b60405162461bcd60e51b815260206004820152600d60248201526c15985d5b1d081b9bdd081cd95d609a1b6044820152606490fd5b60405162461bcd60e51b815260206004820152601460248201527327b7363c9031b0b6363130b1b59039b2b73232b960611b6044820152606490fd5b34610263575f366003190112610263575f546040516001600160a01b039091168152602090f35b34610263575f366003190112610263576103176104e4565b5f80546001600160a01b0319811682556001600160a01b03167f8be0079c531659141344cd1fd0a4f28419497f9722a3daafe3b4186f6b6457e08280a3005b34610263576020366003190112610263576004356001600160a01b03811690819003610263576103846104e4565b600180546001600160a01b031916821790557f161584aed96e7f34998117c9ad67e2d21ff46d2a42775c22b11ed282f3c7b2cd5f80a2005b34610263576020366003190112610263576004356001600160a01b03811690819003610263576103ea6104e4565b600280546001600160a01b031916821790557fb7fa6f777a297516a37f8a8abd5368ce81dfc7f229dd27523b73b3a60fd5f0165f80a2005b90601f8019910116810190811067ffffffffffffffff82111761044457604052565b634e487b7160e01b5f52604160045260245ffd5b6001546001600160a01b03169081156104de576040516306c88d7960e01b81526001600160a01b03909116600482015290602090829060249082905afa908115610258575f916104a6575090565b90506020813d6020116104d6575b816104c160209383610422565b81010312610263575180151581036102635790565b3d91506104b4565b50505f90565b5f546001600160a01b031633036104f757565b63118cdaa760e01b5f523360045260245ffdfea2646970667358221220369a1477ab850441f554ab0df66026cb2a96f07aa7bf7d82ed1bc0d13b090d9264736f6c634300081e0033","linkReferences":{}},"methodIdentifiers":{"callbackSender()":"cb663a63","checkNeedsProtection(address)":"c9342f38","executeProtection(address)":"a3bc685e","owner()":"8da5cb5b","renounceOwnership()":"715018a6","setCallbackSender(address)":"1a33bdd9","setVault(address)":"6817031b","transferOwnership(address)":"f2fde38b","vault()":"fbfa77cf"},"id":36}