{"abi":[{"type":"constructor","inputs":[{"name":"_reactiveSender","type":"address","internalType":"address"}],"stateMutability":"nonpayable"},{"type":"function","name":"AAVE_POOL","inputs":[],"outputs":[{"name":"","type":"address","internalType":"address"}],"stateMutability":"view"},{"type":"function","name":"MAX_LOOPS","inputs":[],"outputs":[{"name":"","type":"uint256","internalType":"uint256"}],"stateMutability":"view"},{"type":"function","name":"TARGET_LTV","inputs":[],"outputs":[{"name":"","type":"uint256","internalType":"uint256"}],"stateMutability":"view"},{"type":"function","name":"UNISWAP_ROUTER","inputs":[],"outputs":[{"name":"","type":"address","internalType":"address"}],"stateMutability":"view"},{"type":"function","name":"USDC","inputs":[],"outputs":[{"name":"","type":"address","internalType":"address"}],"stateMutability":"view"},{"type":"function","name":"WETH","inputs":[],"outputs":[{"name":"","type":"address","internalType":"address"}],"stateMutability":"view"},{"type":"function","name":"deposit","inputs":[],"outputs":[],"stateMutability":"payable"},{"type":"function","name":"executeStrategy","inputs":[{"name":"user","type":"address","internalType":"address"},{"name":"","type":"uint256","internalType":"uint256"}],"outputs":[],"stateMutability":"nonpayable"},{"type":"function","name":"reactiveSender","inputs":[],"outputs":[{"name":"","type":"address","internalType":"address"}],"stateMutability":"view"},{"type":"event","name":"LoopCompleted","inputs":[{"name":"finalLTV","type":"uint256","indexed":false,"internalType":"uint256"},{"name":"iterations","type":"uint256","indexed":false,"internalType":"uint256"}],"anonymous":false},{"type":"event","name":"LoopRequested","inputs":[{"name":"user","type":"address","indexed":true,"internalType":"address"},{"name":"amount","type":"uint256","indexed":false,"internalType":"uint256"}],"anonymous":false}],"bytecode":{"object":"0x608034606f57601f6109bc38819003918201601f19168301916001600160401b03831184841017607357808492602094604052833981010312606f57516001600160a01b03811690819003606f575f80546001600160a01b03191691909117905560405161093490816100888239f35b5f80fd5b634e487b7160e01b5f52604160045260245ffdfe6080806040526004361015610012575f80fd5b5f3560e01c90816308a01675146107f55750806337a2eb71146107da57806389a30271146107ac57806395e09b011461078557806397d9b1b514610769578063ad5c46481461073b578063bcada9b614610252578063d0e30db0146100b15763d82649201461007f575f80fd5b346100ad575f3660031901126100ad576020604051733bfa4769fb09eefc5a80d6e87c3b9c650f7ae48e8152f35b5f80fd5b5f3660031901126100ad5773fff9976782d46cc05630d1f6ebab18b2324d6b143b156100ad57604051630d0e30db60e41b81525f816004813473fff9976782d46cc05630d1f6ebab18b2324d6b145af1801561020a57610242575b5060405163095ea7b360e01b81525f5160206108df5f395f51905f5260048201523460248201526020816044815f73fff9976782d46cc05630d1f6ebab18b2324d6b145af1801561020a57610215575b505f5160206108df5f395f51905f523b156100ad5760405163617ba03760e01b815273fff9976782d46cc05630d1f6ebab18b2324d6b1460048201523460248201523060448201525f6064820181905281608481835f5160206108df5f395f51905f525af1801561020a576101fa575b6040513481527f75a5144c2a28adc09c978a587a72823bc627c8c7250745c7fddd87d3218b48f760203392a2005b5f6102049161081a565b806101cc565b6040513d5f823e3d90fd5b6102369060203d60201161023b575b61022e818361081a565b81019061086a565b61015c565b503d610224565b5f61024c9161081a565b8061010c565b346100ad5760403660031901126100ad576004356001600160a01b038116036100ad575f546001600160a01b031633148015610732575b156106fe575f610297610882565b611d4c8110806106f4575b156106ca57604051632fe4a15f60e21b815230600482015260c0816024815f5160206108df5f395f51905f525afa90811561020a575f91610696575b506032810290808204603214901517156105b1576064900490811561066257505f5160206108df5f395f51905f523b156100ad5760405163a415bcad60e01b8152731c7d4b196cb0c7b01d743fbc6116a902379c72386004820152816024820152600260448201525f60648201523060848201525f8160a481835f5160206108df5f395f51905f525af1801561020a57610652575b5060405163095ea7b360e01b8152733bfa4769fb09eefc5a80d6e87c3b9c650f7ae48e6004820152602481018290526020816044815f731c7d4b196cb0c7b01d743fbc6116a902379c72385af1801561020a57610636575b5060405190610100820182811067ffffffffffffffff821117610622576040908152731c7d4b196cb0c7b01d743fbc6116a902379c7238835273fff9976782d46cc05630d1f6ebab18b2324d6b146020808501918252610bb88584019081523060608701908152426080880190815260a088019687525f60c0890181815260e08a01828152975163414bf38960e01b815299516001600160a01b0390811660048c01529651871660248b0152935162ffffff1660448a0152915185166064890152516084880152945160a48701525160c486015291511660e4840152908290610104908290733bfa4769fb09eefc5a80d6e87c3b9c650f7ae48e5af190811561020a575f916105f1575b5060405163095ea7b360e01b81525f5160206108df5f395f51905f526004820152602481018290526020816044815f73fff9976782d46cc05630d1f6ebab18b2324d6b145af1801561020a576105d5575b505f5160206108df5f395f51905f523b156100ad5760405163617ba03760e01b815273fff9976782d46cc05630d1f6ebab18b2324d6b14600482015260248101919091523060448201525f6064820181905281608481835f5160206108df5f395f51905f525af1801561020a576105c5575b505f1981146105b1576001016105ac610882565b610297565b634e487b7160e01b5f52601160045260245ffd5b5f6105cf9161081a565b81610598565b6105ec9060203d811161023b5761022e818361081a565b610526565b90506020813d821161061a575b8161060b6020938361081a565b810103126100ad5751826104d5565b3d91506105fe565b634e487b7160e01b5f52604160045260245ffd5b61064d9060203d811161023b5761022e818361081a565b6103cb565b5f61065c9161081a565b82610373565b604091507f87243bf8585d1956697e216ae0fb5b1fd23f985b1af093eacee6788f515314ac925b82519182526020820152a1005b6106b7915060c03d81116106c3575b6106af818361081a565b81019061083c565b505050915050836102de565b503d6106a5565b6040907f87243bf8585d1956697e216ae0fb5b1fd23f985b1af093eacee6788f515314ac92610689565b50600582106102a2565b60405162461bcd60e51b815260206004820152600c60248201526b155b985d5d1a1bdc9a5e995960a21b6044820152606490fd5b50303314610289565b346100ad575f3660031901126100ad57602060405173fff9976782d46cc05630d1f6ebab18b2324d6b148152f35b346100ad575f3660031901126100ad576020604051611d4c8152f35b346100ad575f3660031901126100ad575f546040516001600160a01b039091168152602090f35b346100ad575f3660031901126100ad576020604051731c7d4b196cb0c7b01d743fbc6116a902379c72388152f35b346100ad575f3660031901126100ad57602060405160058152f35b346100ad575f3660031901126100ad57805f5160206108df5f395f51905f5260209252f35b90601f8019910116810190811067ffffffffffffffff82111761062257604052565b91908260c09103126100ad5781519160208101519160408201519160608101519160a0608083015192015190565b908160209103126100ad575180151581036100ad5790565b604051632fe4a15f60e21b815230600482015260c0816024815f5160206108df5f395f51905f525afa90811561020a575f916108bc575090565b6108d5915060c03d60c0116106c3576106af818361081a565b5093505050509056fe0000000000000000000000006ae9784f96a58aaf26c31d9d445c7553f146f259a2646970667358221220654657b5f08751878e7d547aaa694505d2fe5f48bf8e83a0c0ad18cc2b23f9d864736f6c634300081e0033","linkReferences":{}},"methodIdentifiers":{"AAVE_POOL()":"08a01675","MAX_LOOPS()":"37a2eb71","TARGET_LTV()":"97d9b1b5","UNISWAP_ROUTER()":"d8264920","USDC()":"89a30271","WETH()":"ad5c4648","deposit()":"d0e30db0","executeStrategy(address,uint256)":"bcada9b6","reactiveSender()":"95e09b01"},"id":35}