{"abi":[{"type":"constructor","inputs":[{"name":"_callbackProxy","type":"address","internalType":"address"}],"stateMutability":"nonpayable"},{"type":"receive","stateMutability":"payable"},{"type":"function","name":"AAVE_POOL","inputs":[],"outputs":[{"name":"","type":"address","internalType":"address"}],"stateMutability":"view"},{"type":"function","name":"HEALTH_FACTOR_PRECISION","inputs":[],"outputs":[{"name":"","type":"uint256","internalType":"uint256"}],"stateMutability":"view"},{"type":"function","name":"PROTECTION_THRESHOLD","inputs":[],"outputs":[{"name":"","type":"uint256","internalType":"uint256"}],"stateMutability":"view"},{"type":"function","name":"SAFE_HEALTH_FACTOR","inputs":[],"outputs":[{"name":"","type":"uint256","internalType":"uint256"}],"stateMutability":"view"},{"type":"function","name":"UNISWAP_ROUTER","inputs":[],"outputs":[{"name":"","type":"address","internalType":"address"}],"stateMutability":"view"},{"type":"function","name":"USDC","inputs":[],"outputs":[{"name":"","type":"address","internalType":"address"}],"stateMutability":"view"},{"type":"function","name":"WETH","inputs":[],"outputs":[{"name":"","type":"address","internalType":"address"}],"stateMutability":"view"},{"type":"function","name":"callbackProxy","inputs":[],"outputs":[{"name":"","type":"address","internalType":"address"}],"stateMutability":"view"},{"type":"function","name":"closePosition","inputs":[],"outputs":[],"stateMutability":"nonpayable"},{"type":"function","name":"createPosition","inputs":[],"outputs":[],"stateMutability":"payable"},{"type":"function","name":"getHealthFactor","inputs":[],"outputs":[{"name":"","type":"uint256","internalType":"uint256"}],"stateMutability":"view"},{"type":"function","name":"getPosition","inputs":[{"name":"user","type":"address","internalType":"address"}],"outputs":[{"name":"","type":"tuple","internalType":"struct LiquidationShieldVault.Position","components":[{"name":"collateralAmount","type":"uint256","internalType":"uint256"},{"name":"debtAmount","type":"uint256","internalType":"uint256"},{"name":"protectionReserve","type":"uint256","internalType":"uint256"},{"name":"isActive","type":"bool","internalType":"bool"},{"name":"lastHealthFactor","type":"uint256","internalType":"uint256"}]}],"stateMutability":"view"},{"type":"function","name":"needsProtection","inputs":[{"name":"user","type":"address","internalType":"address"}],"outputs":[{"name":"","type":"bool","internalType":"bool"}],"stateMutability":"view"},{"type":"function","name":"owner","inputs":[],"outputs":[{"name":"","type":"address","internalType":"address"}],"stateMutability":"view"},{"type":"function","name":"positions","inputs":[{"name":"","type":"address","internalType":"address"}],"outputs":[{"name":"collateralAmount","type":"uint256","internalType":"uint256"},{"name":"debtAmount","type":"uint256","internalType":"uint256"},{"name":"protectionReserve","type":"uint256","internalType":"uint256"},{"name":"isActive","type":"bool","internalType":"bool"},{"name":"lastHealthFactor","type":"uint256","internalType":"uint256"}],"stateMutability":"view"},{"type":"function","name":"renounceOwnership","inputs":[],"outputs":[],"stateMutability":"nonpayable"},{"type":"function","name":"setCallbackProxy","inputs":[{"name":"_callbackProxy","type":"address","internalType":"address"}],"outputs":[],"stateMutability":"nonpayable"},{"type":"function","name":"transferOwnership","inputs":[{"name":"newOwner","type":"address","internalType":"address"}],"outputs":[],"stateMutability":"nonpayable"},{"type":"function","name":"triggerProtection","inputs":[{"name":"user","type":"address","internalType":"address"}],"outputs":[],"stateMutability":"nonpayable"},{"type":"function","name":"updateHealthFactor","inputs":[{"name":"user","type":"address","internalType":"address"}],"outputs":[],"stateMutability":"nonpayable"},{"type":"event","name":"HealthFactorUpdated","inputs":[{"name":"user","type":"address","indexed":true,"internalType":"address"},{"name":"healthFactor","type":"uint256","indexed":false,"internalType":"uint256"},{"name":"timestamp","type":"uint256","indexed":false,"internalType":"uint256"}],"anonymous":false},{"type":"event","name":"OwnershipTransferred","inputs":[{"name":"previousOwner","type":"address","indexed":true,"internalType":"address"},{"name":"newOwner","type":"address","indexed":true,"internalType":"address"}],"anonymous":false},{"type":"event","name":"PositionClosed","inputs":[{"name":"user","type":"address","indexed":true,"internalType":"address"},{"name":"amountReturned","type":"uint256","indexed":false,"internalType":"uint256"}],"anonymous":false},{"type":"event","name":"PositionCreated","inputs":[{"name":"user","type":"address","indexed":true,"internalType":"address"},{"name":"collateralAmount","type":"uint256","indexed":false,"internalType":"uint256"},{"name":"debtAmount","type":"uint256","indexed":false,"internalType":"uint256"},{"name":"healthFactor","type":"uint256","indexed":false,"internalType":"uint256"}],"anonymous":false},{"type":"event","name":"ProtectionTriggered","inputs":[{"name":"user","type":"address","indexed":true,"internalType":"address"},{"name":"debtRepaid","type":"uint256","indexed":false,"internalType":"uint256"},{"name":"newHealthFactor","type":"uint256","indexed":false,"internalType":"uint256"}],"anonymous":false},{"type":"error","name":"OwnableInvalidOwner","inputs":[{"name":"owner","type":"address","internalType":"address"}]},{"type":"error","name":"OwnableUnauthorizedAccount","inputs":[{"name":"account","type":"address","internalType":"address"}]},{"type":"error","name":"ReentrancyGuardReentrantCall","inputs":[]},{"type":"error","name":"SafeERC20FailedOperation","inputs":[{"name":"token","type":"address","internalType":"address"}]}],"bytecode":{"object":"0x60803460d157601f6117fe38819003918201601f19168301916001600160401b0383118484101760d55780849260209460405283398101031260d157516001600160a01b0381169081900360d157331560be575f8054336001600160a01b0319821681178355604051939290916001600160a01b0316907f8be0079c531659141344cd1fd0a4f28419497f9722a3daafe3b4186f6b6457e09080a360018055600280546001600160a01b03191691909117905561171490816100ea8239f35b631e4fbdf760e01b5f525f60045260245ffd5b5f80fd5b634e487b7160e01b5f52604160045260245ffdfe6080604052600436101561001a575b3615610018575f80fd5b005b5f5f3560e01c806306c88d791461146c57806308a016751461144557806316c19739146113825780631e23a49914611360578063284da66114610da757806337559f1e14610d5d5780634cebc7da14610d3457806355f5751014610cc5578063715018a614610c6b5780637945afbd14610c4857806389a3027114610c205780638da5cb5b14610bf95780639ab89f4814610777578063a5f352b7146106ff578063ad5c4648146106d7578063c393d0e3146102df578063d8264920146102b0578063eac60517146101b2578063ed09731e1461018f5763f2fde38b14610101575061000e565b3461018c57602036600319011261018c576004356001600160a01b0381169081900361018a5761012f611658565b80156101765781546001600160a01b03198116821783556001600160a01b03167f8be0079c531659141344cd1fd0a4f28419497f9722a3daafe3b4186f6b6457e08380a380f35b631e4fbdf760e01b82526004829052602482fd5b505b80fd5b503461018c578060031936011261018c5760206040516710a741a4627800008152f35b503461018c57602036600319011261018c576004356001600160a01b0381169081900361018a5780825260036020526101f460ff6003604085200154166115af565b604051632fe4a15f60e21b815230600482015260c0816024815f51602061167f5f395f51905f525afa9081156102a5577f3fb46c9bf1403cc48ad38794740a8c0d4217e83174acfbd96e1cbe376dc429a8916040918591610270575b50838552600360205280600483872001558151908152426020820152a280f35b610292915060c03d60c01161029e575b61028a81836114d5565b8101906114f7565b9450505050505f610250565b503d610280565b6040513d85823e3d90fd5b503461018c578060031936011261018c576020604051733bfa4769fb09eefc5a80d6e87c3b9c650f7ae48e8152f35b503461018c578060031936011261018c576102f8611638565b3381526003602052604081206003810161031560ff8254166115af565b60018201805480610522575b50825492604051631a4ca37b60e21b81525f5160206116bf5f395f51905f526004820152846024820152306044820152602081606481895f51602061167f5f395f51905f525af18015610517576104e4575b505f5160206116bf5f395f51905f523b156104d55784604051632e1a7d4d60e01b81528560048201528181602481835f5160206116bf5f395f51905f525af180156104d9576104c0575b50506002810192835485018095116104ac57805460ff191690558490558390558290558180808084335af13d156104a7573d67ffffffffffffffff81116104935760405190610416601f8201601f1916602001836114d5565b81528360203d92013e5b15610458576040519081527fa9e0cdf27a7965d21573ebb808fbcb2c2a1cfd656e1ecf3f82549437b474067760203392a26001805580f35b60405162461bcd60e51b8152602060048201526013602482015272115512081d1c985b9cd9995c8819985a5b1959606a1b6044820152606490fd5b634e487b7160e01b84526041600452602484fd5b610420565b634e487b7160e01b86526011600452602486fd5b816104ca916114d5565b6104d557845f6103bd565b8480fd5b6040513d84823e3d90fd5b6020813d60201161050f575b816104fd602093836114d5565b8101031261050b5751610373565b5f80fd5b3d91506104f0565b6040513d88823e3d90fd5b602085604051828101906323b872dd60e01b8252336024820152306044820152846064820152606481526105576084826114d5565b5190825f51602061169f5f395f51905f525af1156106cc5784513d6106c357505f51602061169f5f395f51905f523b155b6106a35760405163095ea7b360e01b81525f51602061167f5f395f51905f5260048201526024810182905290602082604481895f51602061169f5f395f51905f525af19081156105175761062092602092610678575b5060405163573ade8160e01b81525f51602061169f5f395f51905f52600482015260248101919091526002604482015230606482015291829081906084820190565b0381885f51602061167f5f395f51905f525af1801561066d57156103215761065f9060203d602011610666575b61065781836114d5565b810190611608565b505f610321565b503d61064d565b6040513d87823e3d90fd5b61069790833d851161069c575b61068f81836114d5565b8101906115f0565b6105de565b503d610685565b635274afe760e01b85525f51602061169f5f395f51905f52600452602485fd5b60011415610588565b6040513d86823e3d90fd5b503461018c578060031936011261018c5760206040515f5160206116bf5f395f51905f528152f35b503461018c578060031936011261018c57604051632fe4a15f60e21b815230600482015260c0816024815f51602061167f5f395f51905f525afa9081156104d95760209291610752575b50604051908152f35b61076b915060c03d60c01161029e5761028a81836114d5565b9450505050505f610749565b508060031936011261018c5761078b611638565b662386f26fc100003410610bc157338152600360205260ff600360408320015416610b7c576014340234810460141434151715610b6857606490046107d08134611617565b5f5160206116bf5f395f51905f523b15610b3257604051630d0e30db60e41b815283908181600481865f5160206116bf5f395f51905f525af180156104d957610b53575b505060405163095ea7b360e01b81525f51602061167f5f395f51905f52600482015260248101829052602081604481875f5160206116bf5f395f51905f525af180156106cc57610b36575b505f51602061167f5f395f51905f523b15610b32578260405163617ba03760e01b81525f5160206116bf5f395f51905f5260048201528260248201523060448201528160648201528181608481835f51602061167f5f395f51905f525af180156104d957610b1d575b5050604051632fe4a15f60e21b815230600482015260c0816024815f51602061167f5f395f51905f525afa9081156106cc578491610af8575b50603281029080820460321490151715610ae4576064900480610a55575b604051632fe4a15f60e21b81523060048201529260c0846024815f51602061167f5f395f51905f525afa93841561066d578594610a2e575b50600460405191610967836114a5565b8483526020830190848252604084019081526060840190600182526080850192888452338a52600360205260408a2095518655516001860155516002850155600384019051151560ff801983541691161790555191015560405191825260208201528160408201527f7ff866ce7c339b915eae857187620f1004605a88fe6dc590d56444fc21936c5760603392a26040519081524260208201527f3fb46c9bf1403cc48ad38794740a8c0d4217e83174acfbd96e1cbe376dc429a860403392a26001805580f35b610a4891945060c03d60c01161029e5761028a81836114d5565b945050505050925f610957565b5f51602061167f5f395f51905f523b15610ae0578360405163a415bcad60e01b81525f51602061169f5f395f51905f52600482015282602482015260026044820152816064820152306084820152818160a481835f51602061167f5f395f51905f525af180156104d957610acb575b505061091f565b81610ad5916114d5565b610ae057835f610ac4565b8380fd5b634e487b7160e01b84526011600452602484fd5b610b11915060c03d60c01161029e5761028a81836114d5565b5050509150505f610901565b81610b27916114d5565b610b3257825f6108c8565b8280fd5b610b4e9060203d60201161069c5761068f81836114d5565b61085f565b81610b5d916114d5565b610b3257825f610814565b634e487b7160e01b82526011600452602482fd5b60405162461bcd60e51b815260206004820152601760248201527f506f736974696f6e20616c7265616479206578697374730000000000000000006044820152606490fd5b60405162461bcd60e51b815260206004820152601060248201526f09ad2dcd2daeada40605c6062408aa8960831b6044820152606490fd5b503461018c578060031936011261018c57546040516001600160a01b039091168152602090f35b503461018c578060031936011261018c5760206040515f51602061169f5f395f51905f528152f35b503461018c578060031936011261018c576020604051670de0b6b3a76400008152f35b503461018c578060031936011261018c57610c84611658565b80546001600160a01b03198116825581906001600160a01b03167f8be0079c531659141344cd1fd0a4f28419497f9722a3daafe3b4186f6b6457e08280a380f35b503461018c57602036600319011261018c576004356001600160a01b0381169081900361018a578160409160a093526003602052208054906001810154906002810154600460ff6003840154169201549260405194855260208501526040840152151560608301526080820152f35b503461018c578060031936011261018c576002546040516001600160a01b039091168152602090f35b503461018c57602036600319011261018c576004356001600160a01b0381169081900361018a57610d8c611658565b6bffffffffffffffffffffffff60a01b600254161760025580f35b503461050b57602036600319011261050b576004356001600160a01b0381169081900361050b576002546001600160a01b0316330361132557610de8611638565b805f52600360205260405f20610e0460ff6003830154166115af565b604051632fe4a15f60e21b815230600482015260c0816024815f51602061167f5f395f51905f525afa8015611273576710a741a462780000915f91611300575b5010156112bb576002810190815491821561127e575f5160206116bf5f395f51905f523b1561050b57604051630d0e30db60e41b81525f81600481875f5160206116bf5f395f51905f525af180156112735761125e575b5060405163095ea7b360e01b8152733bfa4769fb09eefc5a80d6e87c3b9c650f7ae48e600482015260248101849052602081604481895f5160206116bf5f395f51905f525af1801561051757611241575b5060405192610100840184811067ffffffffffffffff82111761122d5760409081525f5160206116bf5f395f51905f5285525f51602061169f5f395f51905f526020808701918252610bb887840190815230606089019081524260808a0190815260a08a0196875260c08a018c815260e08b018d8152965163414bf38960e01b81529a516001600160a01b0390811660048d01529551861660248c0152925162ffffff1660448b01529051841660648a0152516084890152935160a4880152925160c487015290511660e4850152859190846101048185733bfa4769fb09eefc5a80d6e87c3b9c650f7ae48e5af19384156104d95782946111f6575b5060405163095ea7b360e01b81525f51602061167f5f395f51905f52600482015260248101859052602081604481865f51602061169f5f395f51905f525af180156102a5576111d9575b5060405163573ade8160e01b81525f51602061169f5f395f51905f5260048201526024810185905260026044820152306064820152602081608481865f51602061167f5f395f51905f525af180156102a5576111a6575b5055600181018054838082111561119d576110a391611617565b905b55604051632fe4a15f60e21b815230600482015260c0816024815f51602061167f5f395f51905f525afa90811561066d577f3fb46c9bf1403cc48ad38794740a8c0d4217e83174acfbd96e1cbe376dc429a8936040938692889461114d575b507f4e1d93c553ac218cc20894fa5c15f44f8d4fbaedf815bba3197c738be7533dcf91846004879301558151908152846020820152a28151908152426020820152a26001805580f35b6004945091859161118d7f4e1d93c553ac218cc20894fa5c15f44f8d4fbaedf815bba3197c738be7533dcf9460c03d60c01161029e5761028a81836114d5565b9450505050509550915091611104565b505084906110a5565b91506020823d6020116111d1575b816111c1602093836114d5565b8101031261050b57859151611089565b3d91506111b4565b6111f19060203d60201161069c5761068f81836114d5565b611032565b915092506020813d602011611225575b81611213602093836114d5565b8101031261050b57849051925f610fe8565b3d9150611206565b634e487b7160e01b87526041600452602487fd5b6112599060203d60201161069c5761068f81836114d5565b610eec565b61126b9195505f906114d5565b5f935f610e9b565b6040513d5f823e3d90fd5b60405162461bcd60e51b81526020600482015260156024820152744e6f2070726f74656374696f6e207265736572766560581b6044820152606490fd5b60405162461bcd60e51b815260206004820152601860248201527f4865616c746820666163746f72207374696c6c207361666500000000000000006044820152606490fd5b611319915060c03d60c01161029e5761028a81836114d5565b9450505050505f610e44565b60405162461bcd60e51b81526020600482015260136024820152724f6e6c792063616c6c6261636b2070726f787960681b6044820152606490fd5b3461050b575f36600319011261050b5760206040516714d1120d7b1600008152f35b3461050b57602036600319011261050b576004356001600160a01b0381169081900361050b575f60806040516113b7816114a5565b82815282602082015282604082015282606082015201525f52600360205260a060405f206040516113e7816114a5565b815491828252600181015460208301908152600282015490604084019182526080600460ff60038601541694606087019515158652015494019384526040519485525160208501525160408401525115156060830152516080820152f35b3461050b575f36600319011261050b5760206040515f51602061167f5f395f51905f528152f35b3461050b57602036600319011261050b576004356001600160a01b038116810361050b5761149b602091611525565b6040519015158152f35b60a0810190811067ffffffffffffffff8211176114c157604052565b634e487b7160e01b5f52604160045260245ffd5b90601f8019910116810190811067ffffffffffffffff8211176114c157604052565b91908260c091031261050b5781519160208101519160408201519160608101519160a0608083015192015190565b60018060a01b03165f52600360205260ff600360405f20015416156115ab57604051632fe4a15f60e21b815230600482015260c0816024815f51602061167f5f395f51905f525afa8015611273576710a741a462780000915f9161158857501090565b6115a1915060c03d60c01161029e5761028a81836114d5565b9450505050501090565b5f90565b156115b657565b60405162461bcd60e51b815260206004820152601260248201527127379030b1ba34bb32903837b9b4ba34b7b760711b6044820152606490fd5b9081602091031261050b5751801515810361050b5790565b9081602091031261050b575190565b9190820391821161162457565b634e487b7160e01b5f52601160045260245ffd5b600260015414611649576002600155565b633ee5aeb560e01b5f5260045ffd5b5f546001600160a01b0316330361166b57565b63118cdaa760e01b5f523360045260245ffdfe0000000000000000000000006ae43d3271ff6888e7fc43fd7321a503ff73895100000000000000000000000094a9d9ac8a22534e3faca9f4e7f2e2cf85d5e4c8000000000000000000000000fff9976782d46cc05630d1f6ebab18b2324d6b14a2646970667358221220c6d1be20a8636c427958ba6d2ca758bdabd71f45fefd732aeca559ee987a8ea064736f6c63430008210033","linkReferences":{}},"methodIdentifiers":{"AAVE_POOL()":"08a01675","HEALTH_FACTOR_PRECISION()":"7945afbd","PROTECTION_THRESHOLD()":"ed09731e","SAFE_HEALTH_FACTOR()":"1e23a499","UNISWAP_ROUTER()":"d8264920","USDC()":"89a30271","WETH()":"ad5c4648","callbackProxy()":"4cebc7da","closePosition()":"c393d0e3","createPosition()":"9ab89f48","getHealthFactor()":"a5f352b7","getPosition(address)":"16c19739","needsProtection(address)":"06c88d79","owner()":"8da5cb5b","positions(address)":"55f57510","renounceOwnership()":"715018a6","setCallbackProxy(address)":"37559f1e","transferOwnership(address)":"f2fde38b","triggerProtection(address)":"284da661","updateHealthFactor(address)":"eac60517"},"id":34}