{"abi":[{"type":"constructor","inputs":[{"name":"_vaultContract","type":"address","internalType":"address"},{"name":"_executorContract","type":"address","internalType":"address"}],"stateMutability":"payable"},{"type":"receive","stateMutability":"payable"},{"type":"function","name":"CALLBACK_GAS_LIMIT","inputs":[],"outputs":[{"name":"","type":"uint64","internalType":"uint64"}],"stateMutability":"view"},{"type":"function","name":"DESTINATION_CHAIN_ID","inputs":[],"outputs":[{"name":"","type":"uint256","internalType":"uint256"}],"stateMutability":"view"},{"type":"function","name":"ORIGIN_CHAIN_ID","inputs":[],"outputs":[{"name":"","type":"uint256","internalType":"uint256"}],"stateMutability":"view"},{"type":"function","name":"PROTECTION_THRESHOLD","inputs":[],"outputs":[{"name":"","type":"uint256","internalType":"uint256"}],"stateMutability":"view"},{"type":"function","name":"coverDebt","inputs":[],"outputs":[],"stateMutability":"nonpayable"},{"type":"function","name":"executorContract","inputs":[],"outputs":[{"name":"","type":"address","internalType":"address"}],"stateMutability":"view"},{"type":"function","name":"lastProtectionBlock","inputs":[{"name":"","type":"address","internalType":"address"}],"outputs":[{"name":"","type":"uint256","internalType":"uint256"}],"stateMutability":"view"},{"type":"function","name":"pay","inputs":[{"name":"amount","type":"uint256","internalType":"uint256"}],"outputs":[],"stateMutability":"nonpayable"},{"type":"function","name":"react","inputs":[{"name":"log","type":"tuple","internalType":"struct IReactive.LogRecord","components":[{"name":"chain_id","type":"uint256","internalType":"uint256"},{"name":"_contract","type":"address","internalType":"address"},{"name":"topic_0","type":"uint256","internalType":"uint256"},{"name":"topic_1","type":"uint256","internalType":"uint256"},{"name":"topic_2","type":"uint256","internalType":"uint256"},{"name":"topic_3","type":"uint256","internalType":"uint256"},{"name":"data","type":"bytes","internalType":"bytes"},{"name":"block_number","type":"uint256","internalType":"uint256"},{"name":"op_code","type":"uint256","internalType":"uint256"},{"name":"block_hash","type":"uint256","internalType":"uint256"},{"name":"tx_hash","type":"uint256","internalType":"uint256"},{"name":"log_index","type":"uint256","internalType":"uint256"}]}],"outputs":[],"stateMutability":"nonpayable"},{"type":"function","name":"setExecutorContract","inputs":[{"name":"_executor","type":"address","internalType":"address"}],"outputs":[],"stateMutability":"nonpayable"},{"type":"function","name":"setVaultContract","inputs":[{"name":"_vault","type":"address","internalType":"address"}],"outputs":[],"stateMutability":"nonpayable"},{"type":"function","name":"vaultContract","inputs":[],"outputs":[{"name":"","type":"address","internalType":"address"}],"stateMutability":"view"},{"type":"event","name":"Callback","inputs":[{"name":"chain_id","type":"uint256","indexed":true,"internalType":"uint256"},{"name":"_contract","type":"address","indexed":true,"internalType":"address"},{"name":"gas_limit","type":"uint64","indexed":true,"internalType":"uint64"},{"name":"payload","type":"bytes","indexed":false,"internalType":"bytes"}],"anonymous":false},{"type":"event","name":"ProtectionCallbackEmitted","inputs":[{"name":"user","type":"address","indexed":true,"internalType":"address"},{"name":"healthFactor","type":"uint256","indexed":false,"internalType":"uint256"}],"anonymous":false},{"type":"event","name":"SubscriptionCreated","inputs":[{"name":"vault","type":"address","indexed":true,"internalType":"address"}],"anonymous":false}],"bytecode":{"object":"0x6080806040525f6040826108f6803803809161001b82856101d8565b8339810103126101d45761003a60206100338461020f565b930161020f565b600280545f80546001600160a01b031990811662ffffff908117835591829052600160208190527f82ea04094b91fdbcc6bc700815069948943553fb456ac308389bf83006127735805460ff19169091179055903b1560ff166001600160a81b0319909216821763ffffff0017928390556003805482166001600160a01b039788169081179091556004805490921696909416959095179094559092156100eb575b60405161069290816102248239f35b60081c6001600160a01b031690813b156101d4575f809260c4604051809581936305a6aced60e41b835262aa36a760048401528860248401527f3fb46c9bf1403cc48ad38794740a8c0d4217e83174acfbd96e1cbe376dc429a860448401525f5160206108d65f395f51905f5260648401525f5160206108d65f395f51905f5260848401525f5160206108d65f395f51905f5260a48401525af180156101c9576101aa575b5f5160206108b65f395f51905f52915080a25f80806100dc565b505f6101b5916101d8565b5f5160206108b65f395f51905f525f610190565b6040513d5f823e3d90fd5b5f80fd5b601f909101601f19168101906001600160401b038211908210176101fb57604052565b634e487b7160e01b5f52604160045260245ffd5b51906001600160a01b03821682036101d45756fe608080604052600436101561001c575b50361561001a575f80fd5b005b5f3560e01c9081630be5fdf414610355575080630d152c2c146102dd5780630dd85b00146102b05780632274346b146102b55780632ea02369146102b057806333d608f11461029357806369c4ffe0146102575780637a90b990146101c657806396f4ada614610184578063c290d69114610114578063ed09731e146100f25763f33f359c146100ac575f61000f565b346100ee5760203660031901126100ee576004356001600160a01b038116908190036100ee576bffffffffffffffffffffffff60a01b60045416176004555f80f35b5f80fd5b346100ee575f3660031901126100ee5760206040516710a741a4627800008152f35b346100ee5760203660031901126100ee57335f52600160205260ff60405f205416156101465761001a60043533610569565b60405162461bcd60e51b8152602060048201526016602482015275417574686f72697a65642073656e646572206f6e6c7960501b6044820152606490fd5b346100ee5760203660031901126100ee576004356001600160a01b038116908190036100ee576bffffffffffffffffffffffff60a01b60035416176003555f80f35b346100ee575f3660031901126100ee575f546040516326db15bb60e21b8152306004820152906001600160a01b0316602082602481845afa90811561024c575f91610216575b61001a9250610569565b90506020823d602011610244575b8161023160209383610395565b810103126100ee5761001a91519061020c565b3d9150610224565b6040513d5f823e3d90fd5b346100ee5760203660031901126100ee576004356001600160a01b038116908190036100ee575f526005602052602060405f2054604051908152f35b346100ee575f3660031901126100ee576020604051620f42408152f35b610378565b346100ee575f3660031901126100ee576003546040516001600160a01b039091168152602090f35b346100ee5760203660031901126100ee5760043567ffffffffffffffff81116100ee5761018060031982360301126100ee5760ff60025416156103265761001a906004016103cb565b60405162461bcd60e51b8152602060048201526007602482015266564d206f6e6c7960c81b6044820152606490fd5b346100ee575f3660031901126100ee576004546001600160a01b03168152602090f35b346100ee575f3660031901126100ee57602060405162aa36a78152f35b90601f8019910116810190811067ffffffffffffffff8211176103b757604052565b634e487b7160e01b5f52604160045260245ffd5b62aa36a78135036105665760208101356001600160a01b038116908190036100ee576003546001600160a01b031603610566577f3fb46c9bf1403cc48ad38794740a8c0d4217e83174acfbd96e1cbe376dc429a86040820135036105665760608101356001600160a01b03169060c081013536829003601e19018112156100ee578101803567ffffffffffffffff81116100ee57602082019181360383136100ee57602091810103126100ee5735906710a741a46278000082101561056157825f52600560205260e060405f2054910135809114610561577fd9383d810dfa74560a3105b9da26c0cfed39ae3c4b46d77921852459a29212ea91602091845f526005835260405f2055620f424060405162aa36a77f8dd725fa9d6cd150017ab9e60318d40616439424e2fade9c1c58854950917dfc8583016351de342f60e11b815288602485015260248452610522604485610395565b604060018060a01b03600454169481519283918a8352518091818c8501528484015e5f828201840152601f01601f19168101030190a4604051908152a2565b505050565b50565b8147106106225781610579575050565b5f80916020936040519061058d8683610395565b83825285820191601f19870136843751926001600160a01b03165af13d1561061d573d67ffffffffffffffff81116103b757604051906105d6601f8201601f1916850183610395565b81525f833d92013e5b156105e75750565b6064906040519062461bcd60e51b82526004820152600f60248201526e151c985b9cd9995c8819985a5b1959608a1b6044820152fd5b6105df565b60405162461bcd60e51b8152602060048201526012602482015271496e73756666696369656e742066756e647360701b6044820152606490fdfea264697066735822122022cf510bf36b0c1faaf8204cb06adb2ae069afa01f439e0eb61e7516bc891f8064736f6c634300082100334c3772ba36cf4592752f1ac765a5b6e391753813c11b97d12769fcbea359cc35a65f96fc951c35ead38878e0f0b7a3c744a6f5ccc1476b313353ce31712313ad","linkReferences":{}},"methodIdentifiers":{"CALLBACK_GAS_LIMIT()":"33d608f1","DESTINATION_CHAIN_ID()":"2ea02369","ORIGIN_CHAIN_ID()":"0dd85b00","PROTECTION_THRESHOLD()":"ed09731e","coverDebt()":"7a90b990","executorContract()":"0be5fdf4","lastProtectionBlock(address)":"69c4ffe0","pay(uint256)":"c290d691","react((uint256,address,uint256,uint256,uint256,uint256,bytes,uint256,uint256,uint256,uint256,uint256))":"0d152c2c","setExecutorContract(address)":"f33f359c","setVaultContract(address)":"96f4ada6","vaultContract()":"2274346b"},"id":38}