{"abi":[{"type":"constructor","inputs":[{"name":"_service","type":"address","internalType":"address"},{"name":"_vaultContract","type":"address","internalType":"address"},{"name":"_executorContract","type":"address","internalType":"address"}],"stateMutability":"nonpayable"},{"type":"function","name":"DESTINATION_CHAIN_ID","inputs":[],"outputs":[{"name":"","type":"uint256","internalType":"uint256"}],"stateMutability":"view"},{"type":"function","name":"HEALTH_FACTOR_UPDATED_TOPIC","inputs":[],"outputs":[{"name":"","type":"uint256","internalType":"uint256"}],"stateMutability":"view"},{"type":"function","name":"ORIGIN_CHAIN_ID","inputs":[],"outputs":[{"name":"","type":"uint256","internalType":"uint256"}],"stateMutability":"view"},{"type":"function","name":"PROTECTION_THRESHOLD","inputs":[],"outputs":[{"name":"","type":"uint256","internalType":"uint256"}],"stateMutability":"view"},{"type":"function","name":"REACTIVE_IGNORE","inputs":[],"outputs":[{"name":"","type":"uint256","internalType":"uint256"}],"stateMutability":"view"},{"type":"function","name":"executorContract","inputs":[],"outputs":[{"name":"","type":"address","internalType":"address"}],"stateMutability":"view"},{"type":"function","name":"lastProtectionBlock","inputs":[{"name":"","type":"address","internalType":"address"}],"outputs":[{"name":"","type":"uint256","internalType":"uint256"}],"stateMutability":"view"},{"type":"function","name":"react","inputs":[{"name":"chain_id","type":"uint256","internalType":"uint256"},{"name":"_contract","type":"address","internalType":"address"},{"name":"topic_0","type":"uint256","internalType":"uint256"},{"name":"topic_1","type":"uint256","internalType":"uint256"},{"name":"topic_2","type":"uint256","internalType":"uint256"},{"name":"topic_3","type":"uint256","internalType":"uint256"},{"name":"data","type":"bytes","internalType":"bytes"},{"name":"block_number","type":"uint256","internalType":"uint256"},{"name":"op_code","type":"uint256","internalType":"uint256"}],"outputs":[],"stateMutability":"nonpayable"},{"type":"function","name":"service","inputs":[],"outputs":[{"name":"","type":"address","internalType":"address"}],"stateMutability":"view"},{"type":"function","name":"setExecutorContract","inputs":[{"name":"_executor","type":"address","internalType":"address"}],"outputs":[],"stateMutability":"nonpayable"},{"type":"function","name":"setVaultContract","inputs":[{"name":"_vault","type":"address","internalType":"address"}],"outputs":[],"stateMutability":"nonpayable"},{"type":"function","name":"vaultContract","inputs":[],"outputs":[{"name":"","type":"address","internalType":"address"}],"stateMutability":"view"},{"type":"event","name":"Callback","inputs":[{"name":"chain_id","type":"uint256","indexed":true,"internalType":"uint256"},{"name":"_contract","type":"address","indexed":true,"internalType":"address"},{"name":"topic_0","type":"uint256","indexed":true,"internalType":"uint256"},{"name":"topic_1","type":"uint256","indexed":false,"internalType":"uint256"},{"name":"topic_2","type":"uint256","indexed":false,"internalType":"uint256"},{"name":"topic_3","type":"uint256","indexed":false,"internalType":"uint256"},{"name":"data","type":"bytes","indexed":false,"internalType":"bytes"},{"name":"block_number","type":"uint256","indexed":false,"internalType":"uint256"},{"name":"op_code","type":"uint256","indexed":false,"internalType":"uint256"}],"anonymous":false},{"type":"event","name":"ProtectionCallbackEmitted","inputs":[{"name":"user","type":"address","indexed":true,"internalType":"address"},{"name":"healthFactor","type":"uint256","indexed":false,"internalType":"uint256"}],"anonymous":false},{"type":"event","name":"SubscriptionCreated","inputs":[{"name":"vault","type":"address","indexed":true,"internalType":"address"}],"anonymous":false}],"bytecode":{"object":"0x60a08060405234610166575f9060608161073e8038038091610021828561016a565b83398101031261016657610034816101a1565b61004c6040610045602085016101a1565b93016101a1565b60808290525f80546001600160a01b03199081166001600160a01b0395861690811790925560018054909116928516929092179091559116803b15610166576040516305a6aced60e41b815262aa36a76004820152602481018390527f3fb46c9bf1403cc48ad38794740a8c0d4217e83174acfbd96e1cbe376dc429a860448201526352a6a42d60e11b606482018190526084820181905260a4820152905f90829060c490829084905af1801561015b57610146575b507f4c3772ba36cf4592752f1ac765a5b6e391753813c11b97d12769fcbea359cc356040519280a261058890816101b68239608051818181610119015261027e0152f35b6101539192505f9061016a565b5f905f610102565b6040513d5f823e3d90fd5b5f80fd5b601f909101601f19168101906001600160401b0382119082101761018d57604052565b634e487b7160e01b5f52604160045260245ffd5b51906001600160a01b03821682036101665756fe6080806040526004361015610012575f80fd5b5f3560e01c9081630be5fdf414610354575080630dd85b00146103285780632274346b1461032d5780632ea02369146103285780634190e48f1461021857806369c4ffe0146101e05780638671b5da146101be57806393a4e2901461018457806396f4ada614610148578063d598d4c914610104578063ed09731e146100e25763f33f359c146100a0575f80fd5b346100de5760203660031901126100de576001600160a01b036100c1610394565b166bffffffffffffffffffffffff60a01b60015416176001555f80f35b5f80fd5b346100de575f3660031901126100de5760206040516710a741a4627800008152f35b346100de575f3660031901126100de576040517f00000000000000000000000000000000000000000000000000000000000000006001600160a01b03168152602090f35b346100de5760203660031901126100de576001600160a01b03610169610394565b166bffffffffffffffffffffffff60a01b5f5416175f555f80f35b346100de575f3660031901126100de5760206040517f8f1f0f0e0f0f0f0f0f0f0f0f0f0f0f0f0f0f0f0f0f0f0f0f0f0f0f0f0f0f0f0f8152f35b346100de575f3660031901126100de576040516352a6a42d60e11b8152602090f35b346100de5760203660031901126100de576001600160a01b03610201610394565b165f526002602052602060405f2054604051908152f35b346100de576101203660031901126100de576024356001600160a01b03811681036100de5760c4359067ffffffffffffffff82116100de57366023830112156100de5781600401359167ffffffffffffffff83116100de5736602484830101116100de577f00000000000000000000000000000000000000000000000000000000000000006001600160a01b031633036102cf576102cd926101043592602460e43593019060643590604435906004356103aa565b005b60405162461bcd60e51b815260206004820152602b60248201527f416273747261637452656163746976653a2063616c6c6572206973206e6f742060448201526a746865207365727669636560a81b6064820152608490fd5b610377565b346100de575f3660031901126100de575f546040516001600160a01b039091168152602090f35b346100de575f3660031901126100de576001546001600160a01b03168152602090f35b346100de575f3660031901126100de57602060405162aa36a78152f35b600435906001600160a01b03821682036100de57565b94969462aa36a61901610549575f546001600160a01b03908116911603610541577f3fb46c9bf1403cc48ad38794740a8c0d4217e83174acfbd96e1cbe376dc429a80361053a576001600160a01b0316936020908201829003126100de57356710a741a46278000081101561053457835f5260026020528260405f20541461053457835f5260026020528260405f20556040519260208401906351de342f60e11b825285602486015260248552606085019385851067ffffffffffffffff861117610520577f111c300ee008077f687561cd4324315a8f714e90185f6027ae337434dfc85525855f946101407fd9383d810dfa74560a3105b9da26c0cfed39ae3c4b46d77921852459a29212ea9962aa36a79560209a60405260018060a01b0360015416978986528960808401528960a084015260c08084015282518095816101208601528585015e8984868501015260e0830152610100820152605f1992601f8019910116810103010190a4604051908152a2565b634e487b7160e01b5f52604160045260245ffd5b50505050565b5050505050565b505050505050565b5050505050505056fea264697066735822122047826a422d0448344b4caa9790255b12d2340bb59445febfd097957669bae31a64736f6c63430008210033","linkReferences":{}},"methodIdentifiers":{"DESTINATION_CHAIN_ID()":"2ea02369","HEALTH_FACTOR_UPDATED_TOPIC()":"93a4e290","ORIGIN_CHAIN_ID()":"0dd85b00","PROTECTION_THRESHOLD()":"ed09731e","REACTIVE_IGNORE()":"8671b5da","executorContract()":"0be5fdf4","lastProtectionBlock(address)":"69c4ffe0","react(uint256,address,uint256,uint256,uint256,uint256,bytes,uint256,uint256)":"4190e48f","service()":"d598d4c9","setExecutorContract(address)":"f33f359c","setVaultContract(address)":"96f4ada6","vaultContract()":"2274346b"},"id":39}