{"abi":[{"type":"constructor","inputs":[{"name":"_service","type":"address","internalType":"address"},{"name":"_vaultContract","type":"address","internalType":"address"}],"stateMutability":"payable"},{"type":"receive","stateMutability":"payable"},{"type":"function","name":"DESTINATION_CHAIN_ID","inputs":[],"outputs":[{"name":"","type":"uint256","internalType":"uint256"}],"stateMutability":"view"},{"type":"function","name":"LOOPING_COMPLETED_SIG","inputs":[],"outputs":[{"name":"","type":"bytes32","internalType":"bytes32"}],"stateMutability":"view"},{"type":"function","name":"LOOP_REQUESTED_SIG","inputs":[],"outputs":[{"name":"","type":"bytes32","internalType":"bytes32"}],"stateMutability":"view"},{"type":"function","name":"LOOP_STEP_COMPLETED_SIG","inputs":[],"outputs":[{"name":"","type":"bytes32","internalType":"bytes32"}],"stateMutability":"view"},{"type":"function","name":"ORIGIN_CHAIN_ID","inputs":[],"outputs":[{"name":"","type":"uint256","internalType":"uint256"}],"stateMutability":"view"},{"type":"function","name":"UNWIND_REQUESTED_SIG","inputs":[],"outputs":[{"name":"","type":"bytes32","internalType":"bytes32"}],"stateMutability":"view"},{"type":"function","name":"activeLoops","inputs":[{"name":"","type":"address","internalType":"address"}],"outputs":[{"name":"","type":"bool","internalType":"bool"}],"stateMutability":"view"},{"type":"function","name":"lastLoopBlock","inputs":[{"name":"","type":"address","internalType":"address"}],"outputs":[{"name":"","type":"uint256","internalType":"uint256"}],"stateMutability":"view"},{"type":"function","name":"maxLoops","inputs":[],"outputs":[{"name":"","type":"uint256","internalType":"uint256"}],"stateMutability":"view"},{"type":"function","name":"react","inputs":[{"name":"chain_id","type":"uint256","internalType":"uint256"},{"name":"_contract","type":"address","internalType":"address"},{"name":"topic_0","type":"uint256","internalType":"uint256"},{"name":"topic_1","type":"uint256","internalType":"uint256"},{"name":"topic_2","type":"uint256","internalType":"uint256"},{"name":"topic_3","type":"uint256","internalType":"uint256"},{"name":"data","type":"bytes","internalType":"bytes"},{"name":"block_number","type":"uint256","internalType":"uint256"},{"name":"op_code","type":"uint256","internalType":"uint256"}],"outputs":[],"stateMutability":"nonpayable"},{"type":"function","name":"service","inputs":[],"outputs":[{"name":"","type":"address","internalType":"address"}],"stateMutability":"view"},{"type":"function","name":"setMaxLoops","inputs":[{"name":"_maxLoops","type":"uint256","internalType":"uint256"}],"outputs":[],"stateMutability":"nonpayable"},{"type":"function","name":"setTargetLTV","inputs":[{"name":"_targetLTV","type":"uint256","internalType":"uint256"}],"outputs":[],"stateMutability":"nonpayable"},{"type":"function","name":"setVaultContract","inputs":[{"name":"_vault","type":"address","internalType":"address"}],"outputs":[],"stateMutability":"nonpayable"},{"type":"function","name":"targetLTV","inputs":[],"outputs":[{"name":"","type":"uint256","internalType":"uint256"}],"stateMutability":"view"},{"type":"function","name":"userTargetLTV","inputs":[{"name":"","type":"address","internalType":"address"}],"outputs":[{"name":"","type":"uint256","internalType":"uint256"}],"stateMutability":"view"},{"type":"function","name":"vaultContract","inputs":[],"outputs":[{"name":"","type":"address","internalType":"address"}],"stateMutability":"view"},{"type":"event","name":"Callback","inputs":[{"name":"chain_id","type":"uint256","indexed":true,"internalType":"uint256"},{"name":"_contract","type":"address","indexed":true,"internalType":"address"},{"name":"topic_0","type":"uint256","indexed":true,"internalType":"uint256"},{"name":"topic_1","type":"uint256","indexed":false,"internalType":"uint256"},{"name":"topic_2","type":"uint256","indexed":false,"internalType":"uint256"},{"name":"topic_3","type":"uint256","indexed":false,"internalType":"uint256"},{"name":"data","type":"bytes","indexed":false,"internalType":"bytes"},{"name":"block_number","type":"uint256","indexed":false,"internalType":"uint256"},{"name":"op_code","type":"uint256","indexed":false,"internalType":"uint256"}],"anonymous":false},{"type":"event","name":"LoopCallbackEmitted","inputs":[{"name":"user","type":"address","indexed":true,"internalType":"address"},{"name":"loopNumber","type":"uint256","indexed":false,"internalType":"uint256"}],"anonymous":false},{"type":"event","name":"SubscriptionCreated","inputs":[{"name":"vault","type":"address","indexed":true,"internalType":"address"},{"name":"eventSig","type":"bytes32","indexed":false,"internalType":"bytes32"}],"anonymous":false},{"type":"event","name":"UnwindCallbackEmitted","inputs":[{"name":"user","type":"address","indexed":true,"internalType":"address"}],"anonymous":false}],"bytecode":{"object":"0x60a0806040525f604082610e0c803803809161001b82856102f4565b8339810103126102f05761003a60206100338461032b565b930161032b565b6080839052611d4c60015560146002555f80546001600160a01b0319166001600160a01b039283169081179091559216803b156102f0576040516305a6aced60e41b815262aa36a760048201528360248201525f516020610dcc5f395f51905f5260448201525f516020610dac5f395f51905f5260648201525f516020610dac5f395f51905f5260848201525f516020610dac5f395f51905f5260a48201525f8160c48183865af180156102e5576102d0575b50825f516020610dec5f395f51905f5260206040515f516020610dcc5f395f51905f528152a2803b156102ac576040516305a6aced60e41b815262aa36a760048201528360248201525f516020610d6c5f395f51905f5260448201525f516020610dac5f395f51905f5260648201525f516020610dac5f395f51905f5260848201525f516020610dac5f395f51905f5260a4820152828160c48183865af180156102c5579083916102b0575b5050825f516020610dec5f395f51905f5260206040515f516020610d6c5f395f51905f528152a2803b156102ac5781809160c4604051809481936305a6aced60e41b835262aa36a760048401528860248401525f516020610d8c5f395f51905f5260448401525f516020610dac5f395f51905f5260648401525f516020610dac5f395f51905f5260848401525f516020610dac5f395f51905f5260a48401525af180156102a157610289575b825f516020610dec5f395f51905f5260206040515f516020610d8c5f395f51905f528152a2604051610a2c9081610340823960805181818161018401526103e50152f35b6102948280926102f4565b61029e5780610245565b80fd5b6040513d84823e3d90fd5b5080fd5b816102ba916102f4565b6102ac57815f610199565b6040513d85823e3d90fd5b6102dd9192505f906102f4565b5f905f6100ed565b6040513d5f823e3d90fd5b5f80fd5b601f909101601f19168101906001600160401b0382119082101761031757604052565b634e487b7160e01b5f52604160045260245ffd5b51906001600160a01b03821682036102f05756fe6080604052600436101561001a575b3615610018575f80fd5b005b5f3560e01c80630dd85b001461051057806314f0fab4146104d65780632274346b146104af5780632ea02369146104aa578063368018251461048d5780634190e48f1461037f5780634213bc8f1461036257806345890ffd1461032857806360e04d34146102ee57806396f4ada6146102b2578063a6aa9fc61461027a578063b267be5d14610240578063c834c4ca146101eb578063c9389233146101b3578063d598d4c91461016f578063e6705fd7146101325763f8a921af0361000e573461012e57602036600319011261012e57600435603281116100fa57600255005b60405162461bcd60e51b815260206004820152600c60248201526b4d6178203530206c6f6f707360a01b6044820152606490fd5b5f80fd5b3461012e57602036600319011261012e576001600160a01b0361015361052d565b165f526003602052602060ff60405f2054166040519015158152f35b3461012e575f36600319011261012e576040517f00000000000000000000000000000000000000000000000000000000000000006001600160a01b03168152602090f35b3461012e57602036600319011261012e576001600160a01b036101d461052d565b165f526005602052602060405f2054604051908152f35b3461012e57602036600319011261012e57600435612134811161020d57600155005b60405162461bcd60e51b815260206004820152600b60248201526a26b0bc101c1a9290262a2b60a91b6044820152606490fd5b3461012e575f36600319011261012e5760206040517f8420da8e3f3a04e48c3670304cbaf70ff4049a9dadd1aa7fb6d9892876d1f6608152f35b3461012e57602036600319011261012e576001600160a01b0361029b61052d565b165f526004602052602060405f2054604051908152f35b3461012e57602036600319011261012e576001600160a01b036102d361052d565b166bffffffffffffffffffffffff60a01b5f5416175f555f80f35b3461012e575f36600319011261012e5760206040517f8432db7f1820f56099b7095845597da69c9409c2302d692a2d0de83950d7898f8152f35b3461012e575f36600319011261012e5760206040517f86fa0cc12f972519c73e461c7cf24b196ebf25dab35b5f1587351ab472adf7288152f35b3461012e575f36600319011261012e576020600254604051908152f35b3461012e5761012036600319011261012e576024356001600160a01b038116810361012e5760c4359067ffffffffffffffff821161012e573660238301121561012e5781600401359167ffffffffffffffff831161012e57366024848301011161012e577f00000000000000000000000000000000000000000000000000000000000000006001600160a01b0316330361043457610018926101043592602460e4359301906064359060443590600435610543565b60405162461bcd60e51b815260206004820152602b60248201527f416273747261637452656163746976653a2063616c6c6572206973206e6f742060448201526a746865207365727669636560a81b6064820152608490fd5b3461012e575f36600319011261012e576020600154604051908152f35b610510565b3461012e575f36600319011261012e575f546040516001600160a01b039091168152602090f35b3461012e575f36600319011261012e5760206040517f8236ec52e8f385e6ec5af9a2655cdfd458ac5b44d02d5e1d68dad1df711862588152f35b3461012e575f36600319011261012e57602060405162aa36a78152f35b600435906001600160a01b038216820361012e57565b62aa36a79097969593929497036106c7575f546001600160a01b039081169116036106bf576001600160a01b0316947f8432db7f1820f56099b7095845597da69c9409c2302d692a2d0de83950d7898f83146106b3577f8420da8e3f3a04e48c3670304cbaf70ff4049a9dadd1aa7fb6d9892876d1f66083146106a55750507f86fa0cc12f972519c73e461c7cf24b196ebf25dab35b5f1587351ab472adf728146105ed57505050565b825f52600360205260405f2060ff198154169055825f5260056020525f604081205562aa36a77f111c300ee008077f687561cd4324315a8f714e90185f6027ae337434dfc8552560405192602084019363fdc7fab760e01b85528660248201526024815261065c6044826106d0565b61067c60018060a01b035f54169582519020966040519384938a85610706565b0390a47f75d4347cbb2a179dbfd4ac29e937cbd0e009e9a272b8d4548a8766c52d88331b5f80a2565b9091506106b19461086d565b565b9091506106b194610752565b505050505050565b50505050505050565b90601f8019910116810190811067ffffffffffffffff8211176106f257604052565b634e487b7160e01b5f52604160045260245ffd5b90602060a09360e0929796959784525f828501525f604085015260c0606085015280519182918260c0870152018385015e5f828285010152601f80199101168201019460808201520152565b6001600160a01b03165f818152600460205260409020549094939290831461086657845f5260046020528260405f2055845f52600360205260405f20600160ff198254161790556060811015610842575b505062aa36a77f111c300ee008077f687561cd4324315a8f714e90185f6027ae337434dfc855256040519260208401936361b15d0560e01b8552866024820152602481526107f26044826106d0565b61081260018060a01b035f54169582519020966040519384938a85610706565b0390a47fa0faf8b35b7c290231dcbd2d2ba1aee4e7fb2c01aa3c30b14cbe9ec2e715466d602060405160018152a2565b816060918101031261012e57602090845f5260058252013560405f20555f806107a3565b5050505050565b6001600160a01b03165f818152600360205260409020549094919391929060ff1615610866578360a0918101031261012e575f8481526005602052604090205483359390156109eb57845f526005602052608060405f2054915b0135108015906109df575b6109b957835f5260046020528060405f2054146109b357835f5260046020528060405f205562aa36a77f111c300ee008077f687561cd4324315a8f714e90185f6027ae337434dfc855256040519260208401936361b15d0560e01b8552876024820152602481526109446044826106d0565b61096460018060a01b035f54169582519020966040519384938b85610706565b0390a46001810180911161099f5760207fa0faf8b35b7c290231dcbd2d2ba1aee4e7fb2c01aa3c30b14cbe9ec2e715466d91604051908152a2565b634e487b7160e01b5f52601160045260245ffd5b50505050565b505050805f52600360205260405f2060ff1981541690555f5260056020525f6040812055565b506002548310156108d2565b6080600154916108c756fea2646970667358221220717ce45e265e6e1fbf109c5f39849c4fc8269413d307c879751ad53c83d9a36764736f6c634300082100338420da8e3f3a04e48c3670304cbaf70ff4049a9dadd1aa7fb6d9892876d1f66086fa0cc12f972519c73e461c7cf24b196ebf25dab35b5f1587351ab472adf728a65f96fc951c35ead38878e0f0b7a3c744a6f5ccc1476b313353ce31712313ad8432db7f1820f56099b7095845597da69c9409c2302d692a2d0de83950d7898f6a3a48b5925595b0ce0e996429280ed5bbb7492932b261842949ace66c606b1a","linkReferences":{}},"methodIdentifiers":{"DESTINATION_CHAIN_ID()":"2ea02369","LOOPING_COMPLETED_SIG()":"14f0fab4","LOOP_REQUESTED_SIG()":"60e04d34","LOOP_STEP_COMPLETED_SIG()":"b267be5d","ORIGIN_CHAIN_ID()":"0dd85b00","UNWIND_REQUESTED_SIG()":"45890ffd","activeLoops(address)":"e6705fd7","lastLoopBlock(address)":"a6aa9fc6","maxLoops()":"4213bc8f","react(uint256,address,uint256,uint256,uint256,uint256,bytes,uint256,uint256)":"4190e48f","service()":"d598d4c9","setMaxLoops(uint256)":"f8a921af","setTargetLTV(uint256)":"c834c4ca","setVaultContract(address)":"96f4ada6","targetLTV()":"36801825","userTargetLTV(address)":"c9389233","vaultContract()":"2274346b"},"id":29}