{"abi":[{"type":"constructor","inputs":[{"name":"_service","type":"address","internalType":"address"},{"name":"_vaultContract","type":"address","internalType":"address"}],"stateMutability":"nonpayable"},{"type":"function","name":"DESTINATION_CHAIN_ID","inputs":[],"outputs":[{"name":"","type":"uint256","internalType":"uint256"}],"stateMutability":"view"},{"type":"function","name":"LOOP_REQUESTED_SIG","inputs":[],"outputs":[{"name":"","type":"bytes32","internalType":"bytes32"}],"stateMutability":"view"},{"type":"function","name":"LOOP_STEP_COMPLETED_SIG","inputs":[],"outputs":[{"name":"","type":"bytes32","internalType":"bytes32"}],"stateMutability":"view"},{"type":"function","name":"ORIGIN_CHAIN_ID","inputs":[],"outputs":[{"name":"","type":"uint256","internalType":"uint256"}],"stateMutability":"view"},{"type":"function","name":"REACTIVE_IGNORE","inputs":[],"outputs":[{"name":"","type":"uint256","internalType":"uint256"}],"stateMutability":"view"},{"type":"function","name":"UNWIND_REQUESTED_SIG","inputs":[],"outputs":[{"name":"","type":"bytes32","internalType":"bytes32"}],"stateMutability":"view"},{"type":"function","name":"activeLoops","inputs":[{"name":"","type":"address","internalType":"address"}],"outputs":[{"name":"","type":"bool","internalType":"bool"}],"stateMutability":"view"},{"type":"function","name":"lastLoopBlock","inputs":[{"name":"","type":"address","internalType":"address"}],"outputs":[{"name":"","type":"uint256","internalType":"uint256"}],"stateMutability":"view"},{"type":"function","name":"react","inputs":[{"name":"chain_id","type":"uint256","internalType":"uint256"},{"name":"_contract","type":"address","internalType":"address"},{"name":"topic_0","type":"uint256","internalType":"uint256"},{"name":"topic_1","type":"uint256","internalType":"uint256"},{"name":"topic_2","type":"uint256","internalType":"uint256"},{"name":"topic_3","type":"uint256","internalType":"uint256"},{"name":"data","type":"bytes","internalType":"bytes"},{"name":"block_number","type":"uint256","internalType":"uint256"},{"name":"op_code","type":"uint256","internalType":"uint256"}],"outputs":[],"stateMutability":"nonpayable"},{"type":"function","name":"service","inputs":[],"outputs":[{"name":"","type":"address","internalType":"address"}],"stateMutability":"view"},{"type":"function","name":"setVaultContract","inputs":[{"name":"_vault","type":"address","internalType":"address"}],"outputs":[],"stateMutability":"nonpayable"},{"type":"function","name":"vaultContract","inputs":[],"outputs":[{"name":"","type":"address","internalType":"address"}],"stateMutability":"view"},{"type":"event","name":"Callback","inputs":[{"name":"chain_id","type":"uint256","indexed":true,"internalType":"uint256"},{"name":"_contract","type":"address","indexed":true,"internalType":"address"},{"name":"topic_0","type":"uint256","indexed":true,"internalType":"uint256"},{"name":"topic_1","type":"uint256","indexed":false,"internalType":"uint256"},{"name":"topic_2","type":"uint256","indexed":false,"internalType":"uint256"},{"name":"topic_3","type":"uint256","indexed":false,"internalType":"uint256"},{"name":"data","type":"bytes","indexed":false,"internalType":"bytes"},{"name":"block_number","type":"uint256","indexed":false,"internalType":"uint256"},{"name":"op_code","type":"uint256","indexed":false,"internalType":"uint256"}],"anonymous":false},{"type":"event","name":"LoopCallbackEmitted","inputs":[{"name":"user","type":"address","indexed":true,"internalType":"address"},{"name":"loopNumber","type":"uint256","indexed":false,"internalType":"uint256"}],"anonymous":false},{"type":"event","name":"SubscriptionCreated","inputs":[{"name":"vault","type":"address","indexed":true,"internalType":"address"},{"name":"eventSig","type":"bytes32","indexed":false,"internalType":"bytes32"}],"anonymous":false},{"type":"event","name":"UnwindCallbackEmitted","inputs":[{"name":"user","type":"address","indexed":true,"internalType":"address"}],"anonymous":false}],"bytecode":{"object":"0x60a080604052346102aa575f604082610baf803803809161002082856102ae565b8339810103126102aa5761003f6020610038846102e5565b93016102e5565b60808390525f80546001600160a01b0319166001600160a01b039283169081179091559216803b156102aa576040516305a6aced60e41b815262aa36a76004820152602481018490525f516020610b6f5f395f51905f5260448201526352a6a42d60e11b606482018190526084820181905260a4820152905f90829060c490829084905af1801561029f5761028c575b50815f516020610b8f5f395f51905f5260206040515f516020610b6f5f395f51905f528152a26080516001600160a01b0316803b15610273576040516305a6aced60e41b815262aa36a76004820152602481018490525f516020610b2f5f395f51905f5260448201526352a6a42d60e11b606482018190526084820181905260a4820152908290829060c490829084905af1801561026857908291610277575b5050815f516020610b8f5f395f51905f5260206040515f516020610b2f5f395f51905f528152a26080516001600160a01b0316803b15610273576040516305a6aced60e41b815262aa36a76004820152602481018490525f516020610b4f5f395f51905f5260448201526352a6a42d60e11b606482018190526084820181905260a4820152908290829060c490829084905af1801561026857610250575b825f516020610b8f5f395f51905f5260206040515f516020610b4f5f395f51905f528152a260405161083590816102fa823960805181818160f301526102cc0152f35b61025b8280926102ae565b610265578061020d565b80fd5b6040513d84823e3d90fd5b5080fd5b81610281916102ae565b61026557805f61016f565b61029891505f906102ae565b5f5f6100cf565b6040513d5f823e3d90fd5b5f80fd5b601f909101601f19168101906001600160401b038211908210176102d157604052565b634e487b7160e01b5f52604160045260245ffd5b51906001600160a01b03821682036102aa5756fe60806040526004361015610011575f80fd5b5f3560e01c80630dd85b00146103a25780632274346b1461037b5780632ea02369146103765780634190e48f1461026657806345890ffd1461022c57806360e04d34146101f25780638671b5da146101d057806396f4ada614610194578063a6aa9fc61461015c578063b267be5d14610122578063d598d4c9146100de5763e6705fd71461009d575f80fd5b346100da5760203660031901126100da576001600160a01b036100be6103bf565b165f526001602052602060ff60405f2054166040519015158152f35b5f80fd5b346100da575f3660031901126100da576040517f00000000000000000000000000000000000000000000000000000000000000006001600160a01b03168152602090f35b346100da575f3660031901126100da5760206040517f8420da8e3f3a04e48c3670304cbaf70ff4049a9dadd1aa7fb6d9892876d1f6608152f35b346100da5760203660031901126100da576001600160a01b0361017d6103bf565b165f526002602052602060405f2054604051908152f35b346100da5760203660031901126100da576001600160a01b036101b56103bf565b166bffffffffffffffffffffffff60a01b5f5416175f555f80f35b346100da575f3660031901126100da576040516352a6a42d60e11b8152602090f35b346100da575f3660031901126100da5760206040517f8432db7f1820f56099b7095845597da69c9409c2302d692a2d0de83950d7898f8152f35b346100da575f3660031901126100da5760206040517f86fa0cc12f972519c73e461c7cf24b196ebf25dab35b5f1587351ab472adf7288152f35b346100da576101203660031901126100da576024356001600160a01b03811681036100da5760c4359067ffffffffffffffff82116100da57366023830112156100da5781600401359167ffffffffffffffff83116100da5736602484830101116100da577f00000000000000000000000000000000000000000000000000000000000000006001600160a01b0316330361031d5761031b926101043592602460e43593019060643590604435906004356103d5565b005b60405162461bcd60e51b815260206004820152602b60248201527f416273747261637452656163746976653a2063616c6c6572206973206e6f742060448201526a746865207365727669636560a81b6064820152608490fd5b6103a2565b346100da575f3660031901126100da575f546040516001600160a01b039091168152602090f35b346100da575f3660031901126100da57602060405162aa36a78152f35b600435906001600160a01b03821682036100da57565b62aa36a79097959392949703610547575f546001600160a01b0390811691160361053f576001600160a01b0316947f8432db7f1820f56099b7095845597da69c9409c2302d692a2d0de83950d7898f8314610532577f8420da8e3f3a04e48c3670304cbaf70ff4049a9dadd1aa7fb6d9892876d1f66083146105215750507f86fa0cc12f972519c73e461c7cf24b196ebf25dab35b5f1587351ab472adf7281461047e57505050565b62aa36a77f111c300ee008077f687561cd4324315a8f714e90185f6027ae337434dfc855255f9385855260016020526040852060ff19815416905560405163fdc7fab760e01b6020820152866024820152602481526104de604482610550565b6104f860018060a01b038754169560405193849384610586565b0390a47f75d4347cbb2a179dbfd4ac29e937cbd0e009e9a272b8d4548a8766c52d88331b5f80a2565b909150610530949392936106b1565b565b50505090610530926105d1565b505050505050565b50505050505050565b90601f8019910116810190811067ffffffffffffffff82111761057257604052565b634e487b7160e01b5f52604160045260245ffd5b60e0602060a093969594965f84525f828501525f604085015260c0606085015280519182918260c0870152018385015e5f828285010152601f80199101168201019460808201520152565b6001600160a01b03165f8181526002602052604090205490929082146106ac5762aa36a77f111c300ee008077f687561cd4324315a8f714e90185f6027ae337434dfc855255f938585526002602052806040862055858552600160205260408520600160ff198254161790556040516361b15d0560e01b602082015286602482015260248152610662604482610550565b61067c60018060a01b038754169560405193849384610586565b0390a47fa0faf8b35b7c290231dcbd2d2ba1aee4e7fb2c01aa3c30b14cbe9ec2e715466d602060405160018152a2565b505050565b6001600160a01b03165f8181526001602052604090205490949193929060ff16156107f8578360a091810103126100da57611d4c60808435940135108015906107ed575b6107d557835f5260026020528160405f2054146107cf5762aa36a77f111c300ee008077f687561cd4324315a8f714e90185f6027ae337434dfc855255f9386855260026020528060408620556040516361b15d0560e01b602082015287602482015260248152610766604482610550565b61078060018060a01b038754169560405193849384610586565b0390a4600181018091116107bb5760207fa0faf8b35b7c290231dcbd2d2ba1aee4e7fb2c01aa3c30b14cbe9ec2e715466d91604051908152a2565b634e487b7160e01b5f52601160045260245ffd5b50505050565b5050505f52600160205260405f2060ff198154169055565b5060058310156106f5565b505050505056fea264697066735822122025b39d64d6d23bd48949560998f1de74d8c4966b473b26941f3276ba4c1cec0364736f6c634300081e00338420da8e3f3a04e48c3670304cbaf70ff4049a9dadd1aa7fb6d9892876d1f66086fa0cc12f972519c73e461c7cf24b196ebf25dab35b5f1587351ab472adf7288432db7f1820f56099b7095845597da69c9409c2302d692a2d0de83950d7898f6a3a48b5925595b0ce0e996429280ed5bbb7492932b261842949ace66c606b1a","linkReferences":{}},"methodIdentifiers":{"DESTINATION_CHAIN_ID()":"2ea02369","LOOP_REQUESTED_SIG()":"60e04d34","LOOP_STEP_COMPLETED_SIG()":"b267be5d","ORIGIN_CHAIN_ID()":"0dd85b00","REACTIVE_IGNORE()":"8671b5da","UNWIND_REQUESTED_SIG()":"45890ffd","activeLoops(address)":"e6705fd7","lastLoopBlock(address)":"a6aa9fc6","react(uint256,address,uint256,uint256,uint256,uint256,bytes,uint256,uint256)":"4190e48f","service()":"d598d4c9","setVaultContract(address)":"96f4ada6","vaultContract()":"2274346b"},"id":29}