{"abi":[{"type":"constructor","inputs":[{"name":"_vaultContract","type":"address","internalType":"address"}],"stateMutability":"payable"},{"type":"receive","stateMutability":"payable"},{"type":"function","name":"CALLBACK_GAS_LIMIT","inputs":[],"outputs":[{"name":"","type":"uint64","internalType":"uint64"}],"stateMutability":"view"},{"type":"function","name":"DESTINATION_CHAIN_ID","inputs":[],"outputs":[{"name":"","type":"uint256","internalType":"uint256"}],"stateMutability":"view"},{"type":"function","name":"LOOPING_COMPLETED_SIG","inputs":[],"outputs":[{"name":"","type":"bytes32","internalType":"bytes32"}],"stateMutability":"view"},{"type":"function","name":"LOOP_REQUESTED_SIG","inputs":[],"outputs":[{"name":"","type":"bytes32","internalType":"bytes32"}],"stateMutability":"view"},{"type":"function","name":"LOOP_STEP_COMPLETED_SIG","inputs":[],"outputs":[{"name":"","type":"bytes32","internalType":"bytes32"}],"stateMutability":"view"},{"type":"function","name":"ORIGIN_CHAIN_ID","inputs":[],"outputs":[{"name":"","type":"uint256","internalType":"uint256"}],"stateMutability":"view"},{"type":"function","name":"UNWIND_REQUESTED_SIG","inputs":[],"outputs":[{"name":"","type":"bytes32","internalType":"bytes32"}],"stateMutability":"view"},{"type":"function","name":"activeLoops","inputs":[{"name":"","type":"address","internalType":"address"}],"outputs":[{"name":"","type":"bool","internalType":"bool"}],"stateMutability":"view"},{"type":"function","name":"coverDebt","inputs":[],"outputs":[],"stateMutability":"nonpayable"},{"type":"function","name":"lastLoopBlock","inputs":[{"name":"","type":"address","internalType":"address"}],"outputs":[{"name":"","type":"uint256","internalType":"uint256"}],"stateMutability":"view"},{"type":"function","name":"maxLoops","inputs":[],"outputs":[{"name":"","type":"uint256","internalType":"uint256"}],"stateMutability":"view"},{"type":"function","name":"pay","inputs":[{"name":"amount","type":"uint256","internalType":"uint256"}],"outputs":[],"stateMutability":"nonpayable"},{"type":"function","name":"react","inputs":[{"name":"log","type":"tuple","internalType":"struct IReactive.LogRecord","components":[{"name":"chain_id","type":"uint256","internalType":"uint256"},{"name":"_contract","type":"address","internalType":"address"},{"name":"topic_0","type":"uint256","internalType":"uint256"},{"name":"topic_1","type":"uint256","internalType":"uint256"},{"name":"topic_2","type":"uint256","internalType":"uint256"},{"name":"topic_3","type":"uint256","internalType":"uint256"},{"name":"data","type":"bytes","internalType":"bytes"},{"name":"block_number","type":"uint256","internalType":"uint256"},{"name":"op_code","type":"uint256","internalType":"uint256"},{"name":"block_hash","type":"uint256","internalType":"uint256"},{"name":"tx_hash","type":"uint256","internalType":"uint256"},{"name":"log_index","type":"uint256","internalType":"uint256"}]}],"outputs":[],"stateMutability":"nonpayable"},{"type":"function","name":"resetUserLoop","inputs":[{"name":"user","type":"address","internalType":"address"}],"outputs":[],"stateMutability":"nonpayable"},{"type":"function","name":"setMaxLoops","inputs":[{"name":"_maxLoops","type":"uint256","internalType":"uint256"}],"outputs":[],"stateMutability":"nonpayable"},{"type":"function","name":"setTargetLTV","inputs":[{"name":"_targetLTV","type":"uint256","internalType":"uint256"}],"outputs":[],"stateMutability":"nonpayable"},{"type":"function","name":"targetLTV","inputs":[],"outputs":[{"name":"","type":"uint256","internalType":"uint256"}],"stateMutability":"view"},{"type":"function","name":"userTargetLTV","inputs":[{"name":"","type":"address","internalType":"address"}],"outputs":[{"name":"","type":"uint256","internalType":"uint256"}],"stateMutability":"view"},{"type":"function","name":"vaultContract","inputs":[],"outputs":[{"name":"","type":"address","internalType":"address"}],"stateMutability":"view"},{"type":"event","name":"Callback","inputs":[{"name":"chain_id","type":"uint256","indexed":true,"internalType":"uint256"},{"name":"_contract","type":"address","indexed":true,"internalType":"address"},{"name":"gas_limit","type":"uint64","indexed":true,"internalType":"uint64"},{"name":"payload","type":"bytes","indexed":false,"internalType":"bytes"}],"anonymous":false},{"type":"event","name":"LoopCallbackEmitted","inputs":[{"name":"user","type":"address","indexed":true,"internalType":"address"},{"name":"loopNumber","type":"uint256","indexed":false,"internalType":"uint256"}],"anonymous":false},{"type":"event","name":"SubscriptionCreated","inputs":[{"name":"vault","type":"address","indexed":true,"internalType":"address"},{"name":"eventSig","type":"bytes32","indexed":false,"internalType":"bytes32"}],"anonymous":false},{"type":"event","name":"UnwindCallbackEmitted","inputs":[{"name":"user","type":"address","indexed":true,"internalType":"address"}],"anonymous":false}],"bytecode":{"object":"0x6080806040525f90602081610ff9803803809161001c828561036b565b83398101031261036757516001600160a01b038116919082900361036757600280545f80546001600160a01b031990811662ffffff908117835591829052600160208190527f82ea04094b91fdbcc6bc700815069948943553fb456ac308389bf83006127735805460ff19169091179055903b1560ff166001600160a81b0319909216821763ffffff001792839055611d4c60045560146005556003805490911685179055156100d6575b604051610bb690816103a38239f35b60081c6001600160a01b0316803b15610367575f809160c4604051809481936305a6aced60e41b835262aa36a760048401528860248401525f516020610fb95f395f51905f5260448401525f516020610f995f395f51905f5260648401525f516020610f995f395f51905f5260848401525f516020610f995f395f51905f5260a48401525af1801561035c57610349575b50815f516020610fd95f395f51905f5260206040515f516020610fb95f395f51905f528152a260025460081c6001600160a01b0316803b156103305781809160c4604051809481936305a6aced60e41b835262aa36a760048401528860248401525f516020610f595f395f51905f5260448401525f516020610f995f395f51905f5260648401525f516020610f995f395f51905f5260848401525f516020610f995f395f51905f5260a48401525af1801561032557908291610334575b5050815f516020610fd95f395f51905f5260206040515f516020610f595f395f51905f528152a260025460081c6001600160a01b0316803b156103305781809160c4604051809481936305a6aced60e41b835262aa36a760048401528860248401525f516020610f795f395f51905f5260448401525f516020610f995f395f51905f5260648401525f516020610f995f395f51905f5260848401525f516020610f995f395f51905f5260a48401525af180156103255761030d575b50505f516020610fd95f395f51905f5260206040515f516020610f795f395f51905f528152a25f80806100c7565b61031882809261036b565b61032257806102df565b80fd5b6040513d84823e3d90fd5b5080fd5b8161033e9161036b565b61032257805f610224565b61035591505f9061036b565b5f5f610167565b6040513d5f823e3d90fd5b5f80fd5b601f909101601f19168101906001600160401b0382119082101761038e57604052565b634e487b7160e01b5f52604160045260245ffdfe608080604052600436101561001c575b50361561001a575f80fd5b005b5f3560e01c9081630d152c2c14610518575080630dd85b00146104b157806314f0fab4146104de5780632274346b146104b65780632ea02369146104b157806333d608f11461049457806333d8966d1461044c578063368018251461042f5780634213bc8f1461041257806345890ffd146103d857806360e04d341461039e5780637a90b9901461030d578063a6aa9fc6146102d1578063b267be5d14610297578063c290d69114610227578063c834c4ca146101d1578063c938923314610195578063e6705fd7146101545763f8a921af146100f9575f61000f565b34610150576020366003190112610150576004356032811161011a57600555005b60405162461bcd60e51b815260206004820152600e60248201526d546f6f206d616e79206c6f6f707360901b6044820152606490fd5b5f80fd5b34610150576020366003190112610150576004356001600160a01b03811690819003610150575f526006602052602060ff60405f2054166040519015158152f35b34610150576020366003190112610150576004356001600160a01b03811690819003610150575f526008602052602060405f2054604051908152f35b346101505760203660031901126101505760043561232881116101f357600455005b60405162461bcd60e51b815260206004820152600c60248201526b098a8ac40e8dede40d0d2ced60a31b6044820152606490fd5b3461015057602036600319011261015057335f52600160205260ff60405f205416156102595761001a60043533610a8d565b60405162461bcd60e51b8152602060048201526016602482015275417574686f72697a65642073656e646572206f6e6c7960501b6044820152606490fd5b34610150575f3660031901126101505760206040517f8420da8e3f3a04e48c3670304cbaf70ff4049a9dadd1aa7fb6d9892876d1f6608152f35b34610150576020366003190112610150576004356001600160a01b03811690819003610150575f526007602052602060405f2054604051908152f35b34610150575f366003190112610150575f546040516326db15bb60e21b8152306004820152906001600160a01b0316602082602481845afa908115610393575f9161035d575b61001a9250610a8d565b90506020823d60201161038b575b81610378602093836106ed565b810103126101505761001a915190610353565b3d915061036b565b6040513d5f823e3d90fd5b34610150575f3660031901126101505760206040517f8432db7f1820f56099b7095845597da69c9409c2302d692a2d0de83950d7898f8152f35b34610150575f3660031901126101505760206040517f86fa0cc12f972519c73e461c7cf24b196ebf25dab35b5f1587351ab472adf7288152f35b34610150575f366003190112610150576020600554604051908152f35b34610150575f366003190112610150576020600454604051908152f35b34610150576020366003190112610150576004356001600160a01b03811690819003610150575f908152600660209081526040808320805460ff191690556007909152812055005b34610150575f366003190112610150576020604051620f42408152f35b61058e565b34610150575f366003190112610150576003546040516001600160a01b039091168152602090f35b34610150575f3660031901126101505760206040517f8236ec52e8f385e6ec5af9a2655cdfd458ac5b44d02d5e1d68dad1df711862588152f35b34610150576020366003190112610150576004359067ffffffffffffffff82116101505761018060031983360301126101505760ff60025416156105625761001a826004016105de565b62461bcd60e51b8152602060048201526007602482015266564d206f6e6c7960c81b6044820152606490fd5b34610150575f36600319011261015057602060405162aa36a78152f35b903590601e1981360301821215610150570180359067ffffffffffffffff82116101505760200191813603831361015057565b62aa36a78135036106ea5760208101356001600160a01b03811690819003610150576003546001600160a01b0316036106ea5760608101356001600160a01b031660408201357f8432db7f1820f56099b7095845597da69c9409c2302d692a2d0de83950d7898f81146106cb577f8420da8e3f3a04e48c3670304cbaf70ff4049a9dadd1aa7fb6d9892876d1f66081146106ac577f86fa0cc12f972519c73e461c7cf24b196ebf25dab35b5f1587351ab472adf7281461069c575050565b60e06106aa920135906109b6565b565b5060e0826106c060c06106aa9501826105ab565b929091013592610863565b5060e0826106df60c06106aa9501826105ab565b92909101359261074d565b50565b90601f8019910116810190811067ffffffffffffffff82111761070f57604052565b634e487b7160e01b5f52604160045260245ffd5b602060409281835280519182918282860152018484015e5f828201840152601f01601f1916010190565b6001600160a01b03165f81815260076020526040902054909391929190811461085d57835f52600760205260405f2055825f52600660205260405f20600160ff198254161790556060811015610839575b5050620f42406040516361b15d0560e01b6020820152826024820152602481526107c96044826106ed565b62aa36a77f8dd725fa9d6cd150017ab9e60318d40616439424e2fade9c1c58854950917dfc61080960018060a01b03600354169360405191829182610723565b0390a47fa0faf8b35b7c290231dcbd2d2ba1aee4e7fb2c01aa3c30b14cbe9ec2e715466d602060405160018152a2565b816060918101031261015057602090825f5260088252013560405f20555f8061079e565b50505050565b6001600160a01b03165f8181526006602052604090205490939192919060ff161561085d57835f5260076020528060405f20541461085d57835f52600760205260405f205560a08110156108b657505050565b8160a091810103126101505780359060606080820135910135108015906109aa575b61099457620f42406040516361b15d0560e01b6020820152836024820152602481526109056044826106ed565b62aa36a77f8dd725fa9d6cd150017ab9e60318d40616439424e2fade9c1c58854950917dfc61094560018060a01b03600354169360405191829182610723565b0390a4600181018091116109805760207fa0faf8b35b7c290231dcbd2d2ba1aee4e7fb2c01aa3c30b14cbe9ec2e715466d91604051908152a2565b634e487b7160e01b5f52601160045260245ffd5b505f52600660205260405f2060ff198154169055565b506005548110156108d8565b6001600160a01b03165f818152600760205260409020549091908114610a8957815f52600760205260405f2055805f52600660205260405f2060ff198154169055620f424060405163fdc7fab760e01b602082015282602482015260248152610a206044826106ed565b62aa36a77f8dd725fa9d6cd150017ab9e60318d40616439424e2fade9c1c58854950917dfc610a6060018060a01b03600354169360405191829182610723565b0390a47f75d4347cbb2a179dbfd4ac29e937cbd0e009e9a272b8d4548a8766c52d88331b5f80a2565b5050565b814710610b465781610a9d575050565b5f809160209360405190610ab186836106ed565b83825285820191601f19870136843751926001600160a01b03165af13d15610b41573d67ffffffffffffffff811161070f5760405190610afa601f8201601f19168501836106ed565b81525f833d92013e5b15610b0b5750565b6064906040519062461bcd60e51b82526004820152600f60248201526e151c985b9cd9995c8819985a5b1959608a1b6044820152fd5b610b03565b60405162461bcd60e51b8152602060048201526012602482015271496e73756666696369656e742066756e647360701b6044820152606490fdfea264697066735822122074a1b93cff8acdd5ae9d35f1be374a9b83ada1d1db8cb63604a92a5b144e2b9f64736f6c634300082100338420da8e3f3a04e48c3670304cbaf70ff4049a9dadd1aa7fb6d9892876d1f66086fa0cc12f972519c73e461c7cf24b196ebf25dab35b5f1587351ab472adf728a65f96fc951c35ead38878e0f0b7a3c744a6f5ccc1476b313353ce31712313ad8432db7f1820f56099b7095845597da69c9409c2302d692a2d0de83950d7898f6a3a48b5925595b0ce0e996429280ed5bbb7492932b261842949ace66c606b1a","linkReferences":{}},"methodIdentifiers":{"CALLBACK_GAS_LIMIT()":"33d608f1","DESTINATION_CHAIN_ID()":"2ea02369","LOOPING_COMPLETED_SIG()":"14f0fab4","LOOP_REQUESTED_SIG()":"60e04d34","LOOP_STEP_COMPLETED_SIG()":"b267be5d","ORIGIN_CHAIN_ID()":"0dd85b00","UNWIND_REQUESTED_SIG()":"45890ffd","activeLoops(address)":"e6705fd7","coverDebt()":"7a90b990","lastLoopBlock(address)":"a6aa9fc6","maxLoops()":"4213bc8f","pay(uint256)":"c290d691","react((uint256,address,uint256,uint256,uint256,uint256,bytes,uint256,uint256,uint256,uint256,uint256))":"0d152c2c","resetUserLoop(address)":"33d8966d","setMaxLoops(uint256)":"f8a921af","setTargetLTV(uint256)":"c834c4ca","targetLTV()":"36801825","userTargetLTV(address)":"c9389233","vaultContract()":"2274346b"},"id":37}