{"abi":[{"type":"constructor","inputs":[{"name":"_callbackProxy","type":"address","internalType":"address"}],"stateMutability":"nonpayable"},{"type":"receive","stateMutability":"payable"},{"type":"function","name":"AAVE_POOL","inputs":[],"outputs":[{"name":"","type":"address","internalType":"address"}],"stateMutability":"view"},{"type":"function","name":"HEALTH_FACTOR_PRECISION","inputs":[],"outputs":[{"name":"","type":"uint256","internalType":"uint256"}],"stateMutability":"view"},{"type":"function","name":"LTV_PRECISION","inputs":[],"outputs":[{"name":"","type":"uint256","internalType":"uint256"}],"stateMutability":"view"},{"type":"function","name":"POOL_DATA_PROVIDER","inputs":[],"outputs":[{"name":"","type":"address","internalType":"address"}],"stateMutability":"view"},{"type":"function","name":"PRECISION","inputs":[],"outputs":[{"name":"","type":"uint256","internalType":"uint256"}],"stateMutability":"view"},{"type":"function","name":"UNISWAP_ROUTER","inputs":[],"outputs":[{"name":"","type":"address","internalType":"address"}],"stateMutability":"view"},{"type":"function","name":"USDC","inputs":[],"outputs":[{"name":"","type":"address","internalType":"address"}],"stateMutability":"view"},{"type":"function","name":"WETH","inputs":[],"outputs":[{"name":"","type":"address","internalType":"address"}],"stateMutability":"view"},{"type":"function","name":"absoluteMaxLoops","inputs":[],"outputs":[{"name":"","type":"uint256","internalType":"uint256"}],"stateMutability":"view"},{"type":"function","name":"callbackProxy","inputs":[],"outputs":[{"name":"","type":"address","internalType":"address"}],"stateMutability":"view"},{"type":"function","name":"deposit","inputs":[],"outputs":[],"stateMutability":"payable"},{"type":"function","name":"executeLoopStep","inputs":[{"name":"user","type":"address","internalType":"address"}],"outputs":[],"stateMutability":"nonpayable"},{"type":"function","name":"executeUnwind","inputs":[{"name":"user","type":"address","internalType":"address"}],"outputs":[],"stateMutability":"nonpayable"},{"type":"function","name":"getCurrentLTV","inputs":[],"outputs":[{"name":"","type":"uint256","internalType":"uint256"}],"stateMutability":"view"},{"type":"function","name":"getHealthFactor","inputs":[],"outputs":[{"name":"","type":"uint256","internalType":"uint256"}],"stateMutability":"view"},{"type":"function","name":"getPosition","inputs":[{"name":"user","type":"address","internalType":"address"}],"outputs":[{"name":"","type":"tuple","internalType":"struct LooperVault.Position","components":[{"name":"totalCollateral","type":"uint256","internalType":"uint256"},{"name":"totalDebt","type":"uint256","internalType":"uint256"},{"name":"currentLTV","type":"uint256","internalType":"uint256"},{"name":"previousLTV","type":"uint256","internalType":"uint256"},{"name":"loopsCompleted","type":"uint256","internalType":"uint256"},{"name":"isActive","type":"bool","internalType":"bool"},{"name":"isLooping","type":"bool","internalType":"bool"}]}],"stateMutability":"view"},{"type":"function","name":"maxSlippage","inputs":[],"outputs":[{"name":"","type":"uint256","internalType":"uint256"}],"stateMutability":"view"},{"type":"function","name":"minBorrowAmount","inputs":[],"outputs":[{"name":"","type":"uint256","internalType":"uint256"}],"stateMutability":"view"},{"type":"function","name":"minLTVDelta","inputs":[],"outputs":[{"name":"","type":"uint256","internalType":"uint256"}],"stateMutability":"view"},{"type":"function","name":"needsMoreLoops","inputs":[{"name":"user","type":"address","internalType":"address"}],"outputs":[{"name":"","type":"bool","internalType":"bool"}],"stateMutability":"view"},{"type":"function","name":"owner","inputs":[],"outputs":[{"name":"","type":"address","internalType":"address"}],"stateMutability":"view"},{"type":"function","name":"positions","inputs":[{"name":"","type":"address","internalType":"address"}],"outputs":[{"name":"totalCollateral","type":"uint256","internalType":"uint256"},{"name":"totalDebt","type":"uint256","internalType":"uint256"},{"name":"currentLTV","type":"uint256","internalType":"uint256"},{"name":"previousLTV","type":"uint256","internalType":"uint256"},{"name":"loopsCompleted","type":"uint256","internalType":"uint256"},{"name":"isActive","type":"bool","internalType":"bool"},{"name":"isLooping","type":"bool","internalType":"bool"}],"stateMutability":"view"},{"type":"function","name":"renounceOwnership","inputs":[],"outputs":[],"stateMutability":"nonpayable"},{"type":"function","name":"requestUnwind","inputs":[],"outputs":[],"stateMutability":"nonpayable"},{"type":"function","name":"safeHealthFactor","inputs":[],"outputs":[{"name":"","type":"uint256","internalType":"uint256"}],"stateMutability":"view"},{"type":"function","name":"setCallbackProxy","inputs":[{"name":"_proxy","type":"address","internalType":"address"}],"outputs":[],"stateMutability":"nonpayable"},{"type":"function","name":"setMaxSlippage","inputs":[{"name":"_maxSlippage","type":"uint256","internalType":"uint256"}],"outputs":[],"stateMutability":"nonpayable"},{"type":"function","name":"setMinLTVDelta","inputs":[{"name":"_minLTVDelta","type":"uint256","internalType":"uint256"}],"outputs":[],"stateMutability":"nonpayable"},{"type":"function","name":"setTargetLTV","inputs":[{"name":"_targetLTV","type":"uint256","internalType":"uint256"}],"outputs":[],"stateMutability":"nonpayable"},{"type":"function","name":"targetLTV","inputs":[],"outputs":[{"name":"","type":"uint256","internalType":"uint256"}],"stateMutability":"view"},{"type":"function","name":"transferOwnership","inputs":[{"name":"newOwner","type":"address","internalType":"address"}],"outputs":[],"stateMutability":"nonpayable"},{"type":"event","name":"LoopFailed","inputs":[{"name":"user","type":"address","indexed":true,"internalType":"address"},{"name":"reason","type":"string","indexed":false,"internalType":"string"},{"name":"atLoop","type":"uint256","indexed":false,"internalType":"uint256"}],"anonymous":false},{"type":"event","name":"LoopRequested","inputs":[{"name":"user","type":"address","indexed":true,"internalType":"address"},{"name":"initialAmount","type":"uint256","indexed":false,"internalType":"uint256"},{"name":"targetLTV","type":"uint256","indexed":false,"internalType":"uint256"},{"name":"timestamp","type":"uint256","indexed":false,"internalType":"uint256"}],"anonymous":false},{"type":"event","name":"LoopStepCompleted","inputs":[{"name":"user","type":"address","indexed":true,"internalType":"address"},{"name":"loopNumber","type":"uint256","indexed":false,"internalType":"uint256"},{"name":"borrowed","type":"uint256","indexed":false,"internalType":"uint256"},{"name":"swapped","type":"uint256","indexed":false,"internalType":"uint256"},{"name":"supplied","type":"uint256","indexed":false,"internalType":"uint256"},{"name":"currentLTV","type":"uint256","indexed":false,"internalType":"uint256"}],"anonymous":false},{"type":"event","name":"LoopingCompleted","inputs":[{"name":"user","type":"address","indexed":true,"internalType":"address"},{"name":"finalLTV","type":"uint256","indexed":false,"internalType":"uint256"},{"name":"totalLoops","type":"uint256","indexed":false,"internalType":"uint256"},{"name":"totalCollateral","type":"uint256","indexed":false,"internalType":"uint256"},{"name":"totalDebt","type":"uint256","indexed":false,"internalType":"uint256"}],"anonymous":false},{"type":"event","name":"OwnershipTransferred","inputs":[{"name":"previousOwner","type":"address","indexed":true,"internalType":"address"},{"name":"newOwner","type":"address","indexed":true,"internalType":"address"}],"anonymous":false},{"type":"event","name":"UnwindCompleted","inputs":[{"name":"user","type":"address","indexed":true,"internalType":"address"},{"name":"returnedAmount","type":"uint256","indexed":false,"internalType":"uint256"}],"anonymous":false},{"type":"event","name":"UnwindRequested","inputs":[{"name":"user","type":"address","indexed":true,"internalType":"address"},{"name":"timestamp","type":"uint256","indexed":false,"internalType":"uint256"}],"anonymous":false},{"type":"error","name":"AlreadyLooping","inputs":[]},{"type":"error","name":"BorrowCapExceeded","inputs":[{"name":"cap","type":"uint256","internalType":"uint256"},{"name":"totalBorrowed","type":"uint256","internalType":"uint256"}]},{"type":"error","name":"DiminishingReturns","inputs":[{"name":"ltvDelta","type":"uint256","internalType":"uint256"},{"name":"minRequired","type":"uint256","internalType":"uint256"}]},{"type":"error","name":"HealthFactorTooLow","inputs":[{"name":"current","type":"uint256","internalType":"uint256"},{"name":"minimum","type":"uint256","internalType":"uint256"}]},{"type":"error","name":"InsufficientDeposit","inputs":[]},{"type":"error","name":"InsufficientLiquidity","inputs":[{"name":"available","type":"uint256","internalType":"uint256"},{"name":"required","type":"uint256","internalType":"uint256"}]},{"type":"error","name":"NoActivePosition","inputs":[]},{"type":"error","name":"OnlyCallbackProxy","inputs":[]},{"type":"error","name":"OwnableInvalidOwner","inputs":[{"name":"owner","type":"address","internalType":"address"}]},{"type":"error","name":"OwnableUnauthorizedAccount","inputs":[{"name":"account","type":"address","internalType":"address"}]},{"type":"error","name":"PositionAlreadyExists","inputs":[]},{"type":"error","name":"ReentrancyGuardReentrantCall","inputs":[]},{"type":"error","name":"SlippageExceeded","inputs":[{"name":"expected","type":"uint256","internalType":"uint256"},{"name":"received","type":"uint256","internalType":"uint256"}]},{"type":"error","name":"TargetLTVReached","inputs":[]}],"bytecode":{"object":"0x6080346100fe57601f61222038819003918201601f19168301916001600160401b03831184841017610102578084926020946040528339810103126100fe57516001600160a01b038116908190036100fe5733156100eb575f8054336001600160a01b0319821681178355604051939290916001600160a01b0316907f8be0079c531659141344cd1fd0a4f28419497f9722a3daafe3b4186f6b6457e09080a360018055611d4c6002556064600355620f42406004556714d1120d7b16000060055560326006556014600755600880546001600160a01b03191691909117905561210990816101178239f35b631e4fbdf760e01b5f525f60045260245ffd5b5f80fd5b634e487b7160e01b5f52604160045260245ffdfe608080604052600436101561001c575b50361561001a575f80fd5b005b5f905f3560e01c90816308a016751461131c575080630a5db8a8146112ff57806316c197391461120557806333fa0d15146111e857806336801825146111cb57806337559f1e1461118157806343f68a49146111205780634cebc7da146110f857806355f575101461107357806361b15d0514611006578063715018a614610faf5780637945afbd14610f8d578063816ede4214610f0257806389a3027114610ed45780638c04166f14610eb75780638da5cb5b14610e905780639f8ac7b014610e73578063a5f352b714610dfc578063aaf5eb6814610d69578063ad5c464814610dd5578063ae56764014610da7578063b138f99514610d6e578063b78294dd14610d69578063c834c4ca14610d0c578063c9a6bc3014610cef578063cab222bc14610c7e578063d0e30db014610a0f578063d8264920146109e0578063e86211491461090f578063f2fde38b146108855763fdc7fab70361000f5734610882576020366003190112610882576004356001600160a01b03811690818103610880576008546001600160a01b031633141580610876575b610867576101c0611fd0565b818352600960205260ff6005604085200154161561085857604051632fe4a15f60e21b81523060048201529160c0836024815f5160206120745f395f51905f525afa9283156108125784908594610830575b509284935b151580610825575b1561081d5761022d90611ff0565b80156105a05760405190631a4ca37b60e21b82525f5160206120b45f395f51905f5260048301526024820152306044820152602081606481885f5160206120745f395f51905f525af19081156104af57859161056f575b5060405163095ea7b360e01b8152733bfa4769fb09eefc5a80d6e87c3b9c650f7ae48e60048201526024810182905290602082604481895f5160206120b45f395f51905f525af19081156105185761035492602092610554575b50604051906102ec8261138d565b5f5160206120b45f395f51905f5282527394a9d9ac8a22534e3faca9f4e7f2e2cf85d5e4c883830152610bb8604083015230606083015242608083015260a08201528660c08201528660e08201526040518093819263414bf38960e01b835260048301611f41565b038188733bfa4769fb09eefc5a80d6e87c3b9c650f7ae48e5af19081156104af578591610523575b5060405163095ea7b360e01b81525f5160206120745f395f51905f52600482015260248101829052602081604481897394a9d9ac8a22534e3faca9f4e7f2e2cf85d5e4c85af18015610518576104ec575b506040519063573ade8160e01b82527394a9d9ac8a22534e3faca9f4e7f2e2cf85d5e4c86004830152602482015260026044820152306064820152602081608481885f5160206120745f395f51905f525af180156104af576104ba575b50604051632fe4a15f60e21b815230600482015260c0816024815f5160206120745f395f51905f525afa80156104af5785918691610475575b5061046f909194611451565b93610217565b61046f925061049b915060c03d81116104a8575b61049381836113aa565b8101906113cc565b9594505050509190610463565b503d610489565b6040513d87823e3d90fd5b6020813d82116104e4575b816104d2602093836113aa565b810103126104e0575161042a565b5f80fd5b3d91506104c5565b61050c9060203d8111610511575b61050481836113aa565b810190611439565b6103cd565b503d6104fa565b6040513d88823e3d90fd5b90506020813d821161054c575b8161053d602093836113aa565b810103126104e057515f61037c565b3d9150610530565b61056a90833d81116105115761050481836113aa565b6102de565b90506020813d8211610598575b81610589602093836113aa565b810103126104e057515f610284565b3d915061057c565b5091505b604051632fe4a15f60e21b815230600482015260c0816024815f5160206120745f395f51905f525afa9081156108125784916107ee575b50610614575b50815260096020528060056040822082815582600182015582600282015582600382015582600482015501556001805580f35b604051631a4ca37b60e21b81525f5160206120b45f395f51905f5260048201525f196024820152306044820152908390602083606481855f5160206120745f395f51905f525af19283156107e35782936107ac575b505f5160206120b45f395f51905f523b1561079d57604051632e1a7d4d60e01b815260048101849052908282602481835f5160206120b45f395f51905f525af19081156107a15784928492610783575b50819282915af13d1561077e573d67ffffffffffffffff811161076a57604051906106ee601f8201601f1916602001836113aa565b81528460203d92013e5b1561072f577ffecac6a3d195819a6290e3421c69a468c6b67fdb910fbb7a7f1b3af3125f761160208392604051908152a25f6105e1565b60405162461bcd60e51b8152602060048201526013602482015272115512081d1c985b9cd9995c8819985a5b1959606a1b6044820152606490fd5b634e487b7160e01b85526041600452602485fd5b6106f8565b61079091935082906113aa565b61079d578183915f6106b9565b5080fd5b6040513d85823e3d90fd5b915091506020813d6020116107db575b816107c9602093836113aa565b810103126104e057839051915f610669565b3d91506107bc565b6040513d84823e3d90fd5b610807915060c03d60c0116104a85761049381836113aa565b50505050505f6105db565b6040513d86823e3d90fd5b5091506105a4565b50600754841061021f565b905061084c91935060c03d60c0116104a85761049381836113aa565b9694505050505f610212565b630cf2fcaf60e21b8352600483fd5b631e39b2a160e31b8352600483fd5b50303314156101b4565b825b80fd5b5034610882576020366003190112610882576004356001600160a01b0381169081900361079d576108b4611faa565b80156108fb5781546001600160a01b03198116821783556001600160a01b03167f8be0079c531659141344cd1fd0a4f28419497f9722a3daafe3b4186f6b6457e08380a380f35b631e4fbdf760e01b82526004829052602482fd5b5034610882578060031936011261088257604051632fe4a15f60e21b81523060048201529060c0826024815f5160206120745f395f51905f525afa9081156109d457809281926109aa575b50821561099f57612710820291808304612710149015171561098b5750602091610983916113fa565b604051908152f35b634e487b7160e01b81526011600452602490fd5b905060209150610983565b9092506109c6915060c03d60c0116104a85761049381836113aa565b50505050919091905f61095a565b604051903d90823e3d90fd5b50346108825780600319360112610882576020604051733bfa4769fb09eefc5a80d6e87c3b9c650f7ae48e8152f35b505f3660031901126104e057610a23611fd0565b662386f26fc100003410610c6f57335f52600960205260ff600560405f20015416610c60575f5160206120b45f395f51905f523b156104e057604051630d0e30db60e41b81525f81600481345f5160206120b45f395f51905f525af18015610c5557610c42575b5060405163095ea7b360e01b81525f5160206120745f395f51905f526004820152346024820152602081604481855f5160206120b45f395f51905f525af180156107e357610c25575b505f5160206120745f395f51905f523b156108825760405163617ba03760e01b81525f5160206120b45f395f51905f5260048201523460248201523060448201525f606482015281908181608481835f5160206120745f395f51905f525af180156107e357610c10575b50604051610b4a8161135d565b348152602081018281526005604083019284845260608101858152608082019086825260a08301956001875260c08401956001875233895260096020526040892094518555516001850155516002840155516003830155516004820155019151151560ff8019845416911617825551151561ff0082549160081b169061ff0019161790556002546040519034825260208201524260408201527f8432db7f1820f56099b7095845597da69c9409c2302d692a2d0de83950d7898f60603392a26001805580f35b81610c1a916113aa565b61088257805f610b3d565b610c3d9060203d6020116105115761050481836113aa565b610ad3565b610c4e91505f906113aa565b5f5f610a8a565b6040513d5f823e3d90fd5b630dd1bc8b60e31b5f5260045ffd5b63070f6eed60e11b5f5260045ffd5b346104e05760203660031901126104e057600435610c9a611faa565b600a81101580610ce3575b15610caf57600655005b60405162461bcd60e51b815260206004820152600c60248201526b302e312d35252064656c746160a01b6044820152606490fd5b506101f4811115610ca5565b346104e0575f3660031901126104e0576020600654604051908152f35b346104e05760203660031901126104e057600435610d28611faa565b6121348111610d3657600255005b60405162461bcd60e51b815260206004820152600b60248201526a26b0bc101c1a9290262a2b60a91b6044820152606490fd5b611341565b346104e05760203660031901126104e0576004356001600160a01b03811681036104e057610d9d602091611ea0565b6040519015158152f35b346104e0575f3660031901126104e0576020604051733e9708d80f7b3e43118013075f7e95ce3ab31f318152f35b346104e0575f3660031901126104e05760206040515f5160206120b45f395f51905f528152f35b346104e0575f3660031901126104e057604051632fe4a15f60e21b815230600482015260c0816024815f5160206120745f395f51905f525afa8015610c55576020915f91610e4e575b50604051908152f35b610e67915060c03d60c0116104a85761049381836113aa565b94505050505082610e45565b346104e0575f3660031901126104e0576020600554604051908152f35b346104e0575f3660031901126104e0575f546040516001600160a01b039091168152602090f35b346104e0575f3660031901126104e0576020600354604051908152f35b346104e0575f3660031901126104e05760206040517394a9d9ac8a22534e3faca9f4e7f2e2cf85d5e4c88152f35b346104e0575f3660031901126104e057610f1a611fd0565b335f526009602052600560405f20015460ff811615610f7e5760081c60ff16610f6f576040514281527f86fa0cc12f972519c73e461c7cf24b196ebf25dab35b5f1587351ab472adf72860203392a260018055005b63331cb2f560e21b5f5260045ffd5b630cf2fcaf60e21b5f5260045ffd5b346104e0575f3660031901126104e0576020604051670de0b6b3a76400008152f35b346104e0575f3660031901126104e057610fc7611faa565b5f80546001600160a01b0319811682556001600160a01b03167f8be0079c531659141344cd1fd0a4f28419497f9722a3daafe3b4186f6b6457e08280a3005b346104e05760203660031901126104e0576004356001600160a01b03811681036104e0576008546001600160a01b031633141580611069575b61105a576110549061104f611fd0565b61145f565b60018055005b631e39b2a160e31b5f5260045ffd5b503033141561103f565b346104e05760203660031901126104e0576004356001600160a01b038116908190036104e0575f52600960205260e060405f2060ff815491600181015490600281015460038201549060056004840154930154936040519687526020870152604086015260608501526080840152818116151560a084015260081c16151560c0820152f35b346104e0575f3660031901126104e0576008546040516001600160a01b039091168152602090f35b346104e05760203660031901126104e05760043561113c611faa565b6101f4811161114a57600355005b60405162461bcd60e51b815260206004820152600f60248201526e4d617820352520736c69707061676560881b6044820152606490fd5b346104e05760203660031901126104e0576004356001600160a01b038116908190036104e0576111af611faa565b6bffffffffffffffffffffffff60a01b60085416176008555f80f35b346104e0575f3660031901126104e0576020600254604051908152f35b346104e0575f3660031901126104e0576020600754604051908152f35b346104e05760203660031901126104e0576004356001600160a01b038116908190036104e0575f60c060405161123a8161135d565b8281528260208201528260408201528260608201528260808201528260a082015201525f52600960205260e060405f20604051906112778261135d565b805491828152600182015491602082019283526002810154604083019081526003820154906060840191825260056004840154936080860194855201549460ff60c060a087019682891615158852019660081c161515865260405196875251602087015251604086015251606085015251608084015251151560a083015251151560c0820152f35b346104e0575f3660031901126104e0576020600454604051908152f35b346104e0575f3660031901126104e057805f5160206120745f395f51905f5260209252f35b346104e0575f3660031901126104e05760206040516127108152f35b60e0810190811067ffffffffffffffff82111761137957604052565b634e487b7160e01b5f52604160045260245ffd5b610100810190811067ffffffffffffffff82111761137957604052565b90601f8019910116810190811067ffffffffffffffff82111761137957604052565b91908260c09103126104e05781519160208101519160408201519160608101519160a0608083015192015190565b8115611404570490565b634e487b7160e01b5f52601260045260245ffd5b9190820180921161142557565b634e487b7160e01b5f52601160045260245ffd5b908160209103126104e0575180151581036104e05790565b5f1981146114255760010190565b6001600160a01b03165f818152600960205260408120600581018054949392919060ff861615610f7e5760ff8660081c1615611e92576004820190815496600754881015611e435750604051632fe4a15f60e21b81523060048201529360c0856024815f5160206120745f395f51905f525afa948515610c55575f5f905f925f98611e16575b508015611e0d5761271082029180830461271014901517156114255761150a916113fa565b955b600254871015611dba576005548110611d3f5750603c810290808204603c14901517156114255760649004976004548910611cf357604080516308df7cab60e31b81527394a9d9ac8a22534e3faca9f4e7f2e2cf85d5e4c86004820152919082602481733e9708d80f7b3e43118013075f7e95ce3ab31f315afa918215610c55575f92611cbf575b508115908115611b82575b5050505f5160206120745f395f51905f523b156104e05760405163a415bcad60e01b81527394a9d9ac8a22534e3faca9f4e7f2e2cf85d5e4c86004820152886024820152600260448201525f60648201523060848201525f8160a481835f5160206120745f395f51905f525af18015610c5557611b6f575b50670de0b6b3a76400008802888104670de0b6b3a76400001489151715611b47576377359400900460035461271003906127108211611b5b57818102918183041490151715611b4757612710900460405163095ea7b360e01b8152733bfa4769fb09eefc5a80d6e87c3b9c650f7ae48e6004820152896024820152602081604481867394a9d9ac8a22534e3faca9f4e7f2e2cf85d5e4c85af180156107a157906117399291611b2a575b5060206040516116d08161138d565b7394a9d9ac8a22534e3faca9f4e7f2e2cf85d5e4c881525f5160206120b45f395f51905f5282820152610bb860408201523060608201524260808201528b60a08201528260c08201528460e08201526040518094819263414bf38960e01b835260048301611f41565b038186733bfa4769fb09eefc5a80d6e87c3b9c650f7ae48e5af19182156107a1578392611af6575b50808210611ae0575060405163095ea7b360e01b81525f5160206120745f395f51905f52600482015260248101829052602081604481865f5160206120b45f395f51905f525af180156107a157611ac3575b505f5160206120745f395f51905f523b1561079d5760405163617ba03760e01b81525f5160206120b45f395f51905f526004820152602481018290523060448201525f60648201528281608481835f5160206120745f395f51905f525af180156107a157908391611aae575b505061182b8454611451565b9081855561183a818754611418565b92838755600187019761184e8c8a54611418565b92838a558160038a0155604051632fe4a15f60e21b815230600482015260c0816024815f5160206120745f395f51905f525afa80156108125784918591611a89575b508115611a51576127108102908082046127101490151715611a3d578c9d9e8b9c9d9360029c6118e37f8420da8e3f3a04e48c3670304cbaf70ff4049a9dadd1aa7fb6d9892876d1f6609560a0956113fa565b9d8e915b015560405191898352602083015280604083015260608201528b6080820152a280881115611a375787039087821161098b57505b600254871061196c575050825461ff001916909255505054915492546040805192835260208301939093529181019290925260608201525f5160206120945f395f51905f529080608081015b0390a2565b92975092935094506006541180611a2d575b61198b575b505050505050565b5f5160206120945f395f51905f5294611a1f9261ff00198154169055867f02917a194a22a3cd57b502cf7778d86f96dacb50a01b7c592a9e66fa877a0f29608060405160408152601360408201527244494d494e495348494e475f52455455524e5360681b6060820152886020820152a2604051948594859094939260609260808301968352602083015260408201520152565b0390a25f8080808080611983565b506001841161197e565b5061191b565b634e487b7160e01b85526011600452602485fd5b5050997f8420da8e3f3a04e48c3670304cbaf70ff4049a9dadd1aa7fb6d9892876d1f66060a0829d9e8b9c9d60029c879d8e916118e7565b9050611aa4915060c03d60c0116104a85761049381836113aa565b505050505f611890565b81611ab8916113aa565b61079d57815f61181f565b611adb9060203d6020116105115761050481836113aa565b6117b3565b6371c4efed60e01b835260045260245260449150fd5b9091506020813d602011611b22575b81611b12602093836113aa565b810103126104e05751905f611761565b3d9150611b05565b611b429060203d6020116105115761050481836113aa565b6116c1565b634e487b7160e01b82526011600452602482fd5b634e487b7160e01b83526011600452602483fd5b611b7b91505f906113aa565b5f5f611617565b6040516335ea6a7560e01b81527394a9d9ac8a22534e3faca9f4e7f2e2cf85d5e4c860048201529161018083602481733e9708d80f7b3e43118013075f7e95ce3ab31f315afa928315610c55575f93611c73575b50611be18c84611418565b90620f42408502948504620f42401417156114255783101561159f57611c5d91897f02917a194a22a3cd57b502cf7778d86f96dacb50a01b7c592a9e66fa877a0f2960808e94604051906040825260136040830152721093d49493d5d7d0d05417d15610d151511151606a1b60608301526020820152a2611418565b906331198c6560e21b5f5260045260245260445ffd5b909250610180813d8211611cb7575b81611c9061018093836113aa565b810103126104e057610160608082015191015164ffffffffff8116036104e057915f611bd6565b3d9150611c82565b9091506040813d604011611ceb575b81611cdb604093836113aa565b810103126104e05751905f611594565b3d9150611cce565b825461ff00191690925550825460019093015460408051958652602086019290925290840192909252506060820152919250905f5160206120945f395f51905f52908060808101611967565b877f02917a194a22a3cd57b502cf7778d86f96dacb50a01b7c592a9e66fa877a0f2960808c8761ff00198154169055604051906040825260156040830152744845414c54485f464143544f525f544f4f5f4c4f5760581b60608301526020820152a260055490637e7222b760e01b5f5260045260245260445ffd5b5050815461ff001916909155505060028101829055805460019091015460408051938452602084019690965294820152606081019390935290915f5160206120945f395f51905f52908060808101611967565b50505f9561150c565b92505050611e3491955060c03d60c0116104a85761049381836113aa565b989492939291505f90506114e5565b61ff001916905550600281015481546001909201546040805192835260208301979097529581019190915260608101949094525090915f5160206120945f395f51905f52908060808101611967565b62603be960e01b5f5260045ffd5b60018060a01b03165f52600960205260405f20604051611ebf8161135d565b815481526001820154602082015260028201549081604082015260038301546060820152600560048401549384608084015201549060ff82161560ff8115938460a085015260081c16159160c0831591015291611f39575b50611f3357600254119081611f2a575090565b90506007541190565b50505f90565b90505f611f17565b81516001600160a01b03908116825260208084015182169083015260408084015162ffffff16908301526060808401518216908301526080808401519083015260a0808401519083015260c0808401519083015260e09283015116918101919091526101000190565b5f546001600160a01b03163303611fbd57565b63118cdaa760e01b5f523360045260245ffd5b600260015414611fe1576002600155565b633ee5aeb560e01b5f5260045ffd5b600554101561206f57604051632fe4a15f60e21b815230600482015260c0816024815f5160206120745f395f51905f525afa908115610c55575f9161204b575b50601481029080820460141490151715611425576064900490565b612064915060c03d60c0116104a85761049381836113aa565b50505050505f612030565b5f9056fe0000000000000000000000006ae43d3271ff6888e7fc43fd7321a503ff7389518236ec52e8f385e6ec5af9a2655cdfd458ac5b44d02d5e1d68dad1df71186258000000000000000000000000fff9976782d46cc05630d1f6ebab18b2324d6b14a2646970667358221220d2ce4d30b6a4000a01dbee432e29521f9157974138f736fe68b6413e20096e4964736f6c634300081e0033","linkReferences":{}},"methodIdentifiers":{"AAVE_POOL()":"08a01675","HEALTH_FACTOR_PRECISION()":"7945afbd","LTV_PRECISION()":"b78294dd","POOL_DATA_PROVIDER()":"ae567640","PRECISION()":"aaf5eb68","UNISWAP_ROUTER()":"d8264920","USDC()":"89a30271","WETH()":"ad5c4648","absoluteMaxLoops()":"33fa0d15","callbackProxy()":"4cebc7da","deposit()":"d0e30db0","executeLoopStep(address)":"61b15d05","executeUnwind(address)":"fdc7fab7","getCurrentLTV()":"e8621149","getHealthFactor()":"a5f352b7","getPosition(address)":"16c19739","maxSlippage()":"8c04166f","minBorrowAmount()":"0a5db8a8","minLTVDelta()":"c9a6bc30","needsMoreLoops(address)":"b138f995","owner()":"8da5cb5b","positions(address)":"55f57510","renounceOwnership()":"715018a6","requestUnwind()":"816ede42","safeHealthFactor()":"9f8ac7b0","setCallbackProxy(address)":"37559f1e","setMaxSlippage(uint256)":"43f68a49","setMinLTVDelta(uint256)":"cab222bc","setTargetLTV(uint256)":"c834c4ca","targetLTV()":"36801825","transferOwnership(address)":"f2fde38b"},"id":34}